{
  "contractName": "Bancor",
  "abi": [
    {
      "constant": true,
      "inputs": [],
      "name": "version",
      "outputs": [
        {
          "name": "",
          "type": "string"
        }
      ],
      "payable": false,
      "stateMutability": "view",
      "type": "function"
    },
    {
      "constant": false,
      "inputs": [],
      "name": "Constructor",
      "outputs": [],
      "payable": false,
      "stateMutability": "nonpayable",
      "type": "function"
    },
    {
      "constant": true,
      "inputs": [
        {
          "name": "_supply",
          "type": "uint256"
        },
        {
          "name": "_connectorBalance",
          "type": "uint256"
        },
        {
          "name": "_connectorWeight",
          "type": "uint32"
        },
        {
          "name": "_depositAmount",
          "type": "uint256"
        }
      ],
      "name": "calculatePurchaseReturn",
      "outputs": [
        {
          "name": "",
          "type": "uint256"
        }
      ],
      "payable": false,
      "stateMutability": "view",
      "type": "function"
    },
    {
      "constant": true,
      "inputs": [
        {
          "name": "_supply",
          "type": "uint256"
        },
        {
          "name": "_connectorBalance",
          "type": "uint256"
        },
        {
          "name": "_connectorWeight",
          "type": "uint32"
        },
        {
          "name": "_sellAmount",
          "type": "uint256"
        }
      ],
      "name": "calculateSaleReturn",
      "outputs": [
        {
          "name": "",
          "type": "uint256"
        }
      ],
      "payable": false,
      "stateMutability": "view",
      "type": "function"
    },
    {
      "constant": true,
      "inputs": [
        {
          "name": "_baseN",
          "type": "uint256"
        },
        {
          "name": "_baseD",
          "type": "uint256"
        },
        {
          "name": "_expN",
          "type": "uint32"
        },
        {
          "name": "_expD",
          "type": "uint32"
        }
      ],
      "name": "power",
      "outputs": [
        {
          "name": "",
          "type": "uint256"
        },
        {
          "name": "",
          "type": "uint8"
        }
      ],
      "payable": false,
      "stateMutability": "view",
      "type": "function"
    },
    {
      "constant": true,
      "inputs": [
        {
          "name": "x",
          "type": "uint256"
        }
      ],
      "name": "generalLog",
      "outputs": [
        {
          "name": "",
          "type": "uint256"
        }
      ],
      "payable": false,
      "stateMutability": "pure",
      "type": "function"
    },
    {
      "constant": true,
      "inputs": [
        {
          "name": "_n",
          "type": "uint256"
        }
      ],
      "name": "floorLog2",
      "outputs": [
        {
          "name": "",
          "type": "uint8"
        }
      ],
      "payable": false,
      "stateMutability": "pure",
      "type": "function"
    },
    {
      "constant": true,
      "inputs": [
        {
          "name": "_x",
          "type": "uint256"
        }
      ],
      "name": "findPositionInMaxExpArray",
      "outputs": [
        {
          "name": "",
          "type": "uint8"
        }
      ],
      "payable": false,
      "stateMutability": "view",
      "type": "function"
    },
    {
      "constant": true,
      "inputs": [
        {
          "name": "_x",
          "type": "uint256"
        },
        {
          "name": "_precision",
          "type": "uint8"
        }
      ],
      "name": "generalExp",
      "outputs": [
        {
          "name": "",
          "type": "uint256"
        }
      ],
      "payable": false,
      "stateMutability": "pure",
      "type": "function"
    },
    {
      "constant": true,
      "inputs": [
        {
          "name": "x",
          "type": "uint256"
        }
      ],
      "name": "optimalLog",
      "outputs": [
        {
          "name": "",
          "type": "uint256"
        }
      ],
      "payable": false,
      "stateMutability": "pure",
      "type": "function"
    },
    {
      "constant": true,
      "inputs": [
        {
          "name": "x",
          "type": "uint256"
        }
      ],
      "name": "optimalExp",
      "outputs": [
        {
          "name": "",
          "type": "uint256"
        }
      ],
      "payable": false,
      "stateMutability": "pure",
      "type": "function"
    },
    {
      "constant": true,
      "inputs": [
        {
          "name": "_x",
          "type": "uint256"
        },
        {
          "name": "_y",
          "type": "uint256"
        }
      ],
      "name": "safeAdd",
      "outputs": [
        {
          "name": "",
          "type": "uint256"
        }
      ],
      "payable": false,
      "stateMutability": "pure",
      "type": "function"
    },
    {
      "constant": true,
      "inputs": [
        {
          "name": "_x",
          "type": "uint256"
        },
        {
          "name": "_y",
          "type": "uint256"
        }
      ],
      "name": "safeMul",
      "outputs": [
        {
          "name": "",
          "type": "uint256"
        }
      ],
      "payable": false,
      "stateMutability": "pure",
      "type": "function"
    }
  ],
  "bytecode": "0x60806040526040805190810160405280600381526020017f302e330000000000000000000000000000000000000000000000000000000000815250600090805190602001906200005192919062000066565b503480156200005f57600080fd5b5062000115565b828054600181600116156101000203166002900490600052602060002090601f016020900481019282601f10620000a957805160ff1916838001178555620000da565b82800160010185558215620000da579182015b82811115620000d9578251825591602001919060010190620000bc565b5b509050620000e99190620000ed565b5090565b6200011291905b808211156200010e576000816000905550600101620000f4565b5090565b90565b6129a580620001256000396000f3006080604052600436106100c5576000357c0100000000000000000000000000000000000000000000000000000000900463ffffffff16806329576c82146100ca57806329a00e7c1461011857806332833d511461017d57806345b8bafc146101f557806349f9b0f71461023c5780634c3eea9e146102a157806354fd4d50146102e25780638a3c44a5146103725780639505086214610389578063a324cca0146103ca578063ce7845641461040b578063d05c78da14610452578063e6cb90131461049d575b600080fd5b3480156100d657600080fd5b5061010260048036038101908080359060200190929190803560ff1690602001909291905050506104e8565b6040518082815260200191505060405180910390f35b34801561012457600080fd5b506101676004803603810190808035906020019092919080359060200190929190803563ffffffff1690602001909291908035906020019092919050505061090c565b6040518082815260200191505060405180910390f35b34801561018957600080fd5b506101d26004803603810190808035906020019092919080359060200190929190803563ffffffff169060200190929190803563ffffffff1690602001909291905050506109eb565b604051808381526020018260ff1660ff1681526020019250505060405180910390f35b34801561020157600080fd5b5061022060048036038101908080359060200190929190505050610ae3565b604051808260ff1660ff16815260200191505060405180910390f35b34801561024857600080fd5b5061028b6004803603810190808035906020019092919080359060200190929190803563ffffffff16906020019092919080359060200190929190505050610b6f565b6040518082815260200191505060405180910390f35b3480156102ad57600080fd5b506102cc60048036038101908080359060200190929190505050610c73565b6040518082815260200191505060405180910390f35b3480156102ee57600080fd5b506102f7610da9565b6040518080602001828103825283818151815260200191508051906020019080838360005b8381101561033757808201518184015260208101905061031c565b50505050905090810190601f1680156103645780820380516001836020036101000a031916815260200191505b509250505060405180910390f35b34801561037e57600080fd5b50610387610e47565b005b34801561039557600080fd5b506103b460048036038101908080359060200190929190505050611cd9565b6040518082815260200191505060405180910390f35b3480156103d657600080fd5b506103f560048036038101908080359060200190929190505050612299565b6040518082815260200191505060405180910390f35b34801561041757600080fd5b5061043660048036038101908080359060200190929190505050612868565b604051808260ff1660ff16815260200191505060405180910390f35b34801561045e57600080fd5b506104876004803603810190808035906020019092919080359060200190929190505050612928565b6040518082815260200191505060405180910390f35b3480156104a957600080fd5b506104d2600480360381019080803590602001909291908035906020019092919050505061295b565b6040518082815260200191505060405180910390f35b6000806000849150600090508360ff168583029060020a900491506f03442c4e6074a82f1797f72ac00000008202810190508360ff168583029060020a900491506f0116b96f757c380fb287fd0e400000008202810190508360ff168583029060020a900491506e45ae5bdd5f0e03eca1ff43900000008202810190508360ff168583029060020a900491506e0defabf91302cd95b9ffda500000008202810190508360ff168583029060020a900491506e02529ca9832b22439efff9b80000008202810190508360ff168583029060020a900491506d54f1cf12bd04e516b6da880000008202810190508360ff168583029060020a900491506d0a9e39e257a09ca2d6db510000008202810190508360ff168583029060020a900491506d012e066e7b839fa050c3090000008202810190508360ff168583029060020a900491506c1e33d7d926c329a1ad1a8000008202810190508360ff168583029060020a900491506c02bee513bdb4a6b19b5f8000008202810190508360ff168583029060020a900491506b3a9316fa79b88eccf2a000008202810190508360ff168583029060020a900491506b048177ebe1fa8123752000008202810190508360ff168583029060020a900491506a5263fe90242dcbacf000008202810190508360ff168583029060020a900491506a057e22099c030d941000008202810190508360ff168583029060020a900491506957e22099c030d94100008202810190508360ff168583029060020a9004915069052b6b545699763100008202810190508360ff168583029060020a90049150684985f67696bf7480008202810190508360ff168583029060020a900491506803dea12ea99e4980008202810190508360ff168583029060020a900491506731880f2214b6e0008202810190508360ff168583029060020a9004915067025bcff56eb360008202810190508360ff168583029060020a90049150661b722e10ab10008202810190508360ff168583029060020a900491506601317c700770008202810190508360ff168583029060020a90049150650cba84aafa008202810190508360ff168583029060020a900491506482573a0a008202810190508360ff168583029060020a900491506405035ad9008202810190508360ff168583029060020a90049150632f881b008202810190508360ff168583029060020a900491506301b293408202810190508360ff168583029060020a90049150620efc408202810190508360ff168583029060020a90049150617fe08202810190508360ff168583029060020a900491506104208202810190508360ff168583029060020a9004915060218202810190508360ff168583029060020a9004915060018202810190508360ff1660019060020a02856f0688589cc0e9505e2f2fee5580000000838115156108ff57fe5b0401019250505092915050565b600080600080600080891180156109235750600088115b8015610935575060008763ffffffff16115b80156109505750620f424063ffffffff168763ffffffff1611155b151561095b57600080fd5b600086141561096d57600094506109df565b620f424063ffffffff168763ffffffff1614156109a0578761098f8a88612928565b81151561099857fe5b0494506109df565b6109aa868961295b565b91506109bb828989620f42406109eb565b80945081955050508260ff166109d18a86612928565b9060020a9004905088810394505b50505050949350505050565b6000806000806000807002000000000000000000000000000000008a101515610a1057fe5b886f800000000000000000000000000000008b02811515610a2d57fe5b04925070015bf0a8b1457695355fb8ac404e7a79e3831015610a5957610a5283612299565b9350610a65565b610a6283610c73565b93505b8663ffffffff168863ffffffff168502811515610a7e57fe5b049150700800000000000000000000000000000000821015610aae57610aa382611cd9565b607f95509550610ad6565b610ab782612868565b9050610ad081607f0360ff16839060020a9004826104e8565b81955095505b5050505094509492505050565b6000806000809150610100841015610b1a575b6001841115610b15576001849060020a90049350600182019150610af6565b610b65565b608090505b60008160ff161115610b64578060ff1660019060020a0284101515610b51578060ff16849060020a9004935080821791505b60018160ff169060020a90049050610b1f565b5b8192505050919050565b60008060008060008060008a118015610b885750600089115b8015610b9a575060008863ffffffff16115b8015610bb55750620f424063ffffffff168863ffffffff1611155b8015610bc15750898711155b1515610bcc57600080fd5b6000871415610bde5760009550610c66565b89871415610bee57889550610c66565b620f424063ffffffff168863ffffffff161415610c215789610c108a89612928565b811515610c1957fe5b049550610c66565b868a039250610c358a84620f42408b6109eb565b8095508196505050610c478986612928565b91508360ff16899060020a02905084818303811515610c6257fe5b0495505b5050505050949350505050565b6000806000806000925070010000000000000000000000000000000085101515610ce357610cbb6f8000000000000000000000000000000086811515610cb557fe5b04610ae3565b91508160ff16859060020a900494506f800000000000000000000000000000008260ff160292505b6f80000000000000000000000000000000851115610d7157607f90505b60008160ff161115610d70576f80000000000000000000000000000000858602811515610d2957fe5b04945070010000000000000000000000000000000085101515610d64576001859060020a900494506001810360ff1660019060020a02830192505b80600190039050610d00565b5b6f05b9de1d10bf4103d647b0955897ba806f03f80fe03f80fe03f80fe03f80fe03f88402811515610d9e57fe5b049350505050919050565b60008054600181600116156101000203166002900480601f016020809104026020016040519081016040528092919081815260200182805460018160011615610100020316600290048015610e3f5780601f10610e1457610100808354040283529160200191610e3f565b820191906000526020600020905b815481529060010190602001808311610e2257829003601f168201915b505050505081565b701c35fedd14ffffffffffffffffffffffff60016020608081101515610e6957fe5b0181905550701b0ce43b323fffffffffffffffffffffff60016021608081101515610e9057fe5b01819055507019f0028ec1ffffffffffffffffffffffff60016022608081101515610eb757fe5b01819055507018ded91f0e7fffffffffffffffffffffff60016023608081101515610ede57fe5b01819055507017d8ec7f0417ffffffffffffffffffffff60016024608081101515610f0557fe5b01819055507016ddc6556cdbffffffffffffffffffffff60016025608081101515610f2c57fe5b01819055507015ecf52776a1ffffffffffffffffffffff60016026608081101515610f5357fe5b01819055507015060c256cb2ffffffffffffffffffffff60016027608081101515610f7a57fe5b0181905550701428a2f98d72ffffffffffffffffffffff60016028608081101515610fa157fe5b01819055507013545598e5c23fffffffffffffffffffff60016029608081101515610fc857fe5b0181905550701288c4161ce1dfffffffffffffffffffff6001602a608081101515610fef57fe5b01819055507011c592761c666fffffffffffffffffffff6001602b60808110151561101657fe5b018190555070110a688680a757ffffffffffffffffffff6001602c60808110151561103d57fe5b0181905550701056f1b5bedf77ffffffffffffffffffff6001602d60808110151561106457fe5b0181905550700faadceceeff8bffffffffffffffffffff6001602e60808110151561108b57fe5b0181905550700f05dc6b27edadffffffffffffffffffff6001602f6080811015156110b257fe5b0181905550700e67a5a25da4107fffffffffffffffffff600160306080811015156110d957fe5b0181905550700dcff115b14eedffffffffffffffffffff6001603160808110151561110057fe5b0181905550700d3e7a392431239fffffffffffffffffff6001603260808110151561112757fe5b0181905550700cb2ff529eb71e4fffffffffffffffffff6001603360808110151561114e57fe5b0181905550700c2d415c3db974afffffffffffffffffff6001603460808110151561117557fe5b0181905550700bad03e7d883f69bffffffffffffffffff6001603560808110151561119c57fe5b0181905550700b320d03b2c343d5ffffffffffffffffff600160366080811015156111c357fe5b0181905550700abc25204e02828dffffffffffffffffff600160376080811015156111ea57fe5b0181905550700a4b16f74ee4bb207fffffffffffffffff6001603860808110151561121157fe5b01819055507009deaf736ac1f569ffffffffffffffffff6001603960808110151561123857fe5b0181905550700976bd9952c7aa957fffffffffffffffff6001603a60808110151561125f57fe5b01819055507009131271922eaa606fffffffffffffffff6001603b60808110151561128657fe5b01819055507008b380f3558668c46fffffffffffffffff6001603c6080811015156112ad57fe5b0181905550700857ddf0117efa215bffffffffffffffff6001603d6080811015156112d457fe5b01819055507007ffffffffffffffffffffffffffffffff6001603e6080811015156112fb57fe5b01819055507007abbf6f6abb9d087fffffffffffffffff6001603f60808110151561132257fe5b018190555070075af62cbac95f7dfa7fffffffffffffff6001604060808110151561134957fe5b018190555070070d7fb7452e187ac13fffffffffffffff6001604160808110151561137057fe5b01819055507006c3390ecc8af379295fffffffffffffff6001604260808110151561139757fe5b018190555070067c00a3b07ffc01fd6fffffffffffffff600160436080811015156113be57fe5b0181905550700637b647c39cbb9d3d27ffffffffffffff600160446080811015156113e557fe5b01819055507005f63b1fc104dbd39587ffffffffffffff6001604560808110151561140c57fe5b01819055507005b771955b36e12f7235ffffffffffffff6001604660808110151561143357fe5b018190555070057b3d49dda84556d6f6ffffffffffffff6001604760808110151561145a57fe5b018190555070054183095b2c8ececf30ffffffffffffff6001604860808110151561148157fe5b018190555070050a28be635ca2b888f77fffffffffffff600160496080811015156114a857fe5b01819055507004d5156639708c9db33c3fffffffffffff6001604a6080811015156114cf57fe5b01819055507004a23105873875bd52dfdfffffffffffff6001604b6080811015156114f657fe5b0181905550700471649d87199aa990756fffffffffffff6001604c60808110151561151d57fe5b01819055507004429a21a029d4c1457cfbffffffffffff6001604d60808110151561154457fe5b0181905550700415bc6d6fb7dd71af2cb3ffffffffffff6001604e60808110151561156b57fe5b01819055507003eab73b3bbfe282243ce1ffffffffffff6001604f60808110151561159257fe5b01819055507003c1771ac9fb6b4c18e229ffffffffffff600160506080811015156115b957fe5b0181905550700399e96897690418f785257fffffffffff600160516080811015156115e057fe5b0181905550700373fc456c53bb779bf0ea9fffffffffff6001605260808110151561160757fe5b018190555070034f9e8e490c48e67e6ab8bfffffffffff6001605360808110151561162e57fe5b018190555070032cbfd4a7adc790560b3337ffffffffff6001605460808110151561165557fe5b018190555070030b50570f6e5d2acca94613ffffffffff6001605560808110151561167c57fe5b01819055507002eb40f9f620fda6b56c2861ffffffffff600160566080811015156116a357fe5b01819055507002cc8340ecb0d0f520a6af58ffffffffff600160576080811015156116ca57fe5b01819055507002af09481380a0a35cf1ba02ffffffffff600160586080811015156116f157fe5b0181905550700292c5bdd3b92ec810287b1b3fffffffff6001605960808110151561171857fe5b0181905550700277abdcdab07d5a77ac6d6b9fffffffff6001605a60808110151561173f57fe5b018190555070025daf6654b1eaa55fd64df5efffffffff6001605b60808110151561176657fe5b0181905550700244c49c648baa98192dce88b7ffffffff6001605c60808110151561178d57fe5b018190555070022ce03cd5619a311b2471268bffffffff6001605d6080811015156117b457fe5b0181905550700215f77c045fbe885654a44a0fffffffff6001605e6080811015156117db57fe5b01819055507001ffffffffffffffffffffffffffffffff6001605f60808110151561180257fe5b01819055507001eaefdbdaaee7421fc4d3ede5ffffffff6001606060808110151561182957fe5b01819055507001d6bd8b2eb257df7e8ca57b09bfffffff6001606160808110151561185057fe5b01819055507001c35fedd14b861eb0443f7f133fffffff6001606260808110151561187757fe5b01819055507001b0ce43b322bcde4a56e8ada5afffffff6001606360808110151561189e57fe5b018190555070019f0028ec1fff007f5a195a39dfffffff600160646080811015156118c557fe5b018190555070018ded91f0e72ee74f49b15ba527ffffff600160656080811015156118ec57fe5b018190555070017d8ec7f04136f4e5615fd41a63ffffff6001606660808110151561191357fe5b018190555070016ddc6556cdb84bdc8d12d22e6fffffff6001606760808110151561193a57fe5b018190555070015ecf52776a1155b5bd8395814f7fffff6001606860808110151561196157fe5b018190555070015060c256cb23b3b3cc3754cf40ffffff6001606960808110151561198857fe5b01819055507001428a2f98d728ae223ddab715be3fffff6001606a6080811015156119af57fe5b018190555070013545598e5c23276ccf0ede68034fffff6001606b6080811015156119d657fe5b01819055507001288c4161ce1d6f54b7f61081194fffff6001606c6080811015156119fd57fe5b018190555070011c592761c666aa641d5a01a40f17ffff6001606d608081101515611a2457fe5b0181905550700110a688680a7530515f3e6e6cfdcdffff6001606e608081101515611a4b57fe5b01819055507001056f1b5bedf75c6bcb2ce8aed428ffff6001606f608081101515611a7257fe5b01819055506ffaadceceeff8a0890f3875f008277fff60016070608081101515611a9857fe5b01819055506ff05dc6b27edad306388a600f6ba0bfff60016071608081101515611abe57fe5b01819055506fe67a5a25da41063de1495d5b18cdbfff60016072608081101515611ae457fe5b01819055506fdcff115b14eedde6fc3aa5353f2e4fff60016073608081101515611b0a57fe5b01819055506fd3e7a3924312399f9aae2e0f868f8fff60016074608081101515611b3057fe5b01819055506fcb2ff529eb71e41582cccd5a1ee26fff60016075608081101515611b5657fe5b01819055506fc2d415c3db974ab32a51840c0b67edff60016076608081101515611b7c57fe5b01819055506fbad03e7d883f69ad5b0a186184e06bff60016077608081101515611ba257fe5b01819055506fb320d03b2c343d4829abd6075f0cc5ff60016078608081101515611bc857fe5b01819055506fabc25204e02828d73c6e80bcdb1a95bf60016079608081101515611bee57fe5b01819055506fa4b16f74ee4bb2040a1ec6c15fbbf2df6001607a608081101515611c1457fe5b01819055506f9deaf736ac1f569deb1b5ae3f36c130f6001607b608081101515611c3a57fe5b01819055506f976bd9952c7aa957f5937d790ef650376001607c608081101515611c6057fe5b01819055506f9131271922eaa6064b73a22d0bd4f2bf6001607d608081101515611c8657fe5b01819055506f8b380f3558668c46c91c49a2f8e967b96001607e608081101515611cac57fe5b01819055506f857ddf0117efa215952912839f6473e66001607f608081101515611cd257fe5b0181905550565b600080600080600092506f1000000000000000000000000000000085811515611cfe57fe5b0691508190506f80000000000000000000000000000000828202811515611d2157fe5b0490506710e1b3be415a00008102830192506f80000000000000000000000000000000828202811515611d5057fe5b0490506705a0913f6b1e00008102830192506f80000000000000000000000000000000828202811515611d7f57fe5b049050670168244fdac780008102830192506f80000000000000000000000000000000828202811515611dae57fe5b049050664807432bc180008102830192506f80000000000000000000000000000000828202811515611ddc57fe5b049050660c0135dca040008102830192506f80000000000000000000000000000000828202811515611e0a57fe5b0490506601b707b1cdc0008102830192506f80000000000000000000000000000000828202811515611e3857fe5b0490506536e0f639b8008102830192506f80000000000000000000000000000000828202811515611e6557fe5b049050650618fee9f8008102830192506f80000000000000000000000000000000828202811515611e9257fe5b049050649c197dcc008102830192506f80000000000000000000000000000000828202811515611ebe57fe5b049050640e30dce4008102830192506f80000000000000000000000000000000828202811515611eea57fe5b04905064012ebd13008102830192506f80000000000000000000000000000000828202811515611f1657fe5b0490506317499f008102830192506f80000000000000000000000000000000828202811515611f4157fe5b0490506301a9d4808102830192506f80000000000000000000000000000000828202811515611f6c57fe5b049050621c63808102830192506f80000000000000000000000000000000828202811515611f9657fe5b0490506201c6388102830192506f80000000000000000000000000000000828202811515611fc057fe5b049050611ab88102830192506f80000000000000000000000000000000828202811515611fe957fe5b04905061017c8102830192506f8000000000000000000000000000000082820281151561201257fe5b04905060148102830192506f8000000000000000000000000000000082820281151561203a57fe5b04905060018102830192506f80000000000000000000000000000000826721c3677c82b400008581151561206a57fe5b040101925060006f1000000000000000000000000000000086161415156120be5770018ebef9eac820ae8682b9793ac6d1e7767001c3d6a24ed82218787d624d3e5eba95f984028115156120ba57fe5b0492505b60006f20000000000000000000000000000000861614151561210d577001368b2fc6f9609fe7aceb46aa619baed470018ebef9eac820ae8682b9793ac6d1e778840281151561210957fe5b0492505b60006f40000000000000000000000000000000861614151561215b576fbc5ab1b16779be3575bd8f0520a9f21f7001368b2fc6f9609fe7aceb46aa619baed5840281151561215757fe5b0492505b60006f8000000000000000000000000000000086161415156121a8576f454aaa8efe072e7f6ddbab84b40a55c96fbc5ab1b16779be3575bd8f0520a9f21e84028115156121a457fe5b0492505b600070010000000000000000000000000000000086161415156121f6576f0960aadc109e7a3bf4578099615711ea6f454aaa8efe072e7f6ddbab84b40a55c584028115156121f257fe5b0492505b60007002000000000000000000000000000000008616141515612243576e2bf84208204f5977f9a8cf01fdce3d6f0960aadc109e7a3bf4578099615711d7840281151561223f57fe5b0492505b6000700400000000000000000000000000000000861614151561228e576d03c6ab775dd0b95b4cbee7e65d116e2bf84208204f5977f9a8cf01fdc307840281151561228a57fe5b0492505b829350505050919050565b60008060008060008093506fd3094c70f034de4b96ff7d5b6f99fcd886101515612303576f40000000000000000000000000000000840193506fd3094c70f034de4b96ff7d5b6f99fcd86f8000000000000000000000000000000087028115156122ff57fe5b0495505b6fa45af1e1f40c333b3de1db4dd55f29a786101515612362576f20000000000000000000000000000000840193506fa45af1e1f40c333b3de1db4dd55f29a76f80000000000000000000000000000000870281151561235e57fe5b0495505b6f910b022db7ae67ce76b441c27035c6a1861015156123c1576f10000000000000000000000000000000840193506f910b022db7ae67ce76b441c27035c6a16f8000000000000000000000000000000087028115156123bd57fe5b0495505b6f88415abbe9a76bead8d00cf112e4d4a886101515612420576f08000000000000000000000000000000840193506f88415abbe9a76bead8d00cf112e4d4a86f80000000000000000000000000000000870281151561241c57fe5b0495505b6f84102b00893f64c705e841d5d4064bd38610151561247f576f04000000000000000000000000000000840193506f84102b00893f64c705e841d5d4064bd36f80000000000000000000000000000000870281151561247b57fe5b0495505b6f8204055aaef1c8bd5c3259f4822735a2861015156124de576f02000000000000000000000000000000840193506f8204055aaef1c8bd5c3259f4822735a26f8000000000000000000000000000000087028115156124da57fe5b0495505b6f810100ab00222d861931c15e39b44e998610151561253d576f01000000000000000000000000000000840193506f810100ab00222d861931c15e39b44e996f80000000000000000000000000000000870281151561253957fe5b0495505b6f808040155aabbbe9451521693554f7338610151561259b576e800000000000000000000000000000840193506f808040155aabbbe9451521693554f7336f80000000000000000000000000000000870281151561259757fe5b0495505b6f80000000000000000000000000000000860392508291506f800000000000000000000000000000008384028115156125d057fe5b0490507001000000000000000000000000000000008370010000000000000000000000000000000003830281151561260457fe5b04840193506f8000000000000000000000000000000081830281151561262657fe5b049150700200000000000000000000000000000000836faaaaaaaaaaaaaaaaaaaaaaaaaaaaaaaa03830281151561265957fe5b04840193506f8000000000000000000000000000000081830281151561267b57fe5b049150700300000000000000000000000000000000836f999999999999999999999999999999990383028115156126ae57fe5b04840193506f800000000000000000000000000000008183028115156126d057fe5b049150700400000000000000000000000000000000836f9249249249249249249249249249249203830281151561270357fe5b04840193506f8000000000000000000000000000000081830281151561272557fe5b049150700500000000000000000000000000000000836f8e38e38e38e38e38e38e38e38e38e38e03830281151561275857fe5b04840193506f8000000000000000000000000000000081830281151561277a57fe5b049150700600000000000000000000000000000000836f8ba2e8ba2e8ba2e8ba2e8ba2e8ba2e8b0383028115156127ad57fe5b04840193506f800000000000000000000000000000008183028115156127cf57fe5b049150700700000000000000000000000000000000836f89d89d89d89d89d89d89d89d89d89d8903830281151561280257fe5b04840193506f8000000000000000000000000000000081830281151561282457fe5b049150700800000000000000000000000000000000836f8888888888888888888888888888888803830281151561285757fe5b048401935083945050505050919050565b60008060008060209250607f91505b8160ff166001840160ff1610156128c957600282840160ff1681151561289957fe5b0490508460018260ff166080811015156128af57fe5b01541015156128c0578092506128c4565b8091505b612877565b8460018360ff166080811015156128dc57fe5b01541015156128ed57819350612920565b8460018460ff1660808110151561290057fe5b015410151561291157829350612920565b6000151561291b57fe5b600093505b505050919050565b60008082840290506000841480612949575082848281151561294657fe5b04145b151561295157fe5b8091505092915050565b600080828401905083811015151561296f57fe5b80915050929150505600a165627a7a723058206d897baeb0e8ec04f4a0c4e360671bec23ae7b4afc77005663074c0eab26d9d50029",
  "source": "pragma solidity ^0.4.21;\n\ncontract Bancor {\n\n    string public version = '0.3';\n\n    uint256 private constant ONE = 1;\n    uint32 private constant MAX_WEIGHT = 1000000;\n    uint8 private constant MIN_PRECISION = 32;\n    uint8 private constant MAX_PRECISION = 127;\n\n    /**\n        Auto-generated via 'PrintIntScalingFactors.py'\n    */\n    uint256 private constant FIXED_1 = 0x080000000000000000000000000000000;\n    uint256 private constant FIXED_2 = 0x100000000000000000000000000000000;\n    uint256 private constant MAX_NUM = 0x200000000000000000000000000000000;\n\n    /**\n        Auto-generated via 'PrintLn2ScalingFactors.py'\n    */\n    uint256 private constant LN2_NUMERATOR   = 0x3f80fe03f80fe03f80fe03f80fe03f8;\n    uint256 private constant LN2_DENOMINATOR = 0x5b9de1d10bf4103d647b0955897ba80;\n\n    /**\n        Auto-generated via 'PrintFunctionOptimalLog.py' and 'PrintFunctionOptimalExp.py'\n    */\n    uint256 private constant OPT_LOG_MAX_VAL = 0x15bf0a8b1457695355fb8ac404e7a79e3;\n    uint256 private constant OPT_EXP_MAX_VAL = 0x800000000000000000000000000000000;\n\n    /**\n        Auto-generated via 'PrintFunctionBancorFormula.py'\n    */\n    uint256[128] private maxExpArray;\n    function Constructor() public {\n    //  maxExpArray[  0] = 0x6bffffffffffffffffffffffffffffffff;\n    //  maxExpArray[  1] = 0x67ffffffffffffffffffffffffffffffff;\n    //  maxExpArray[  2] = 0x637fffffffffffffffffffffffffffffff;\n    //  maxExpArray[  3] = 0x5f6fffffffffffffffffffffffffffffff;\n    //  maxExpArray[  4] = 0x5b77ffffffffffffffffffffffffffffff;\n    //  maxExpArray[  5] = 0x57b3ffffffffffffffffffffffffffffff;\n    //  maxExpArray[  6] = 0x5419ffffffffffffffffffffffffffffff;\n    //  maxExpArray[  7] = 0x50a2ffffffffffffffffffffffffffffff;\n    //  maxExpArray[  8] = 0x4d517fffffffffffffffffffffffffffff;\n    //  maxExpArray[  9] = 0x4a233fffffffffffffffffffffffffffff;\n    //  maxExpArray[ 10] = 0x47165fffffffffffffffffffffffffffff;\n    //  maxExpArray[ 11] = 0x4429afffffffffffffffffffffffffffff;\n    //  maxExpArray[ 12] = 0x415bc7ffffffffffffffffffffffffffff;\n    //  maxExpArray[ 13] = 0x3eab73ffffffffffffffffffffffffffff;\n    //  maxExpArray[ 14] = 0x3c1771ffffffffffffffffffffffffffff;\n    //  maxExpArray[ 15] = 0x399e96ffffffffffffffffffffffffffff;\n    //  maxExpArray[ 16] = 0x373fc47fffffffffffffffffffffffffff;\n    //  maxExpArray[ 17] = 0x34f9e8ffffffffffffffffffffffffffff;\n    //  maxExpArray[ 18] = 0x32cbfd5fffffffffffffffffffffffffff;\n    //  maxExpArray[ 19] = 0x30b5057fffffffffffffffffffffffffff;\n    //  maxExpArray[ 20] = 0x2eb40f9fffffffffffffffffffffffffff;\n    //  maxExpArray[ 21] = 0x2cc8340fffffffffffffffffffffffffff;\n    //  maxExpArray[ 22] = 0x2af09481ffffffffffffffffffffffffff;\n    //  maxExpArray[ 23] = 0x292c5bddffffffffffffffffffffffffff;\n    //  maxExpArray[ 24] = 0x277abdcdffffffffffffffffffffffffff;\n    //  maxExpArray[ 25] = 0x25daf6657fffffffffffffffffffffffff;\n    //  maxExpArray[ 26] = 0x244c49c65fffffffffffffffffffffffff;\n    //  maxExpArray[ 27] = 0x22ce03cd5fffffffffffffffffffffffff;\n    //  maxExpArray[ 28] = 0x215f77c047ffffffffffffffffffffffff;\n    //  maxExpArray[ 29] = 0x1fffffffffffffffffffffffffffffffff;\n    //  maxExpArray[ 30] = 0x1eaefdbdabffffffffffffffffffffffff;\n    //  maxExpArray[ 31] = 0x1d6bd8b2ebffffffffffffffffffffffff;\n        maxExpArray[ 32] = 0x1c35fedd14ffffffffffffffffffffffff;\n        maxExpArray[ 33] = 0x1b0ce43b323fffffffffffffffffffffff;\n        maxExpArray[ 34] = 0x19f0028ec1ffffffffffffffffffffffff;\n        maxExpArray[ 35] = 0x18ded91f0e7fffffffffffffffffffffff;\n        maxExpArray[ 36] = 0x17d8ec7f0417ffffffffffffffffffffff;\n        maxExpArray[ 37] = 0x16ddc6556cdbffffffffffffffffffffff;\n        maxExpArray[ 38] = 0x15ecf52776a1ffffffffffffffffffffff;\n        maxExpArray[ 39] = 0x15060c256cb2ffffffffffffffffffffff;\n        maxExpArray[ 40] = 0x1428a2f98d72ffffffffffffffffffffff;\n        maxExpArray[ 41] = 0x13545598e5c23fffffffffffffffffffff;\n        maxExpArray[ 42] = 0x1288c4161ce1dfffffffffffffffffffff;\n        maxExpArray[ 43] = 0x11c592761c666fffffffffffffffffffff;\n        maxExpArray[ 44] = 0x110a688680a757ffffffffffffffffffff;\n        maxExpArray[ 45] = 0x1056f1b5bedf77ffffffffffffffffffff;\n        maxExpArray[ 46] = 0x0faadceceeff8bffffffffffffffffffff;\n        maxExpArray[ 47] = 0x0f05dc6b27edadffffffffffffffffffff;\n        maxExpArray[ 48] = 0x0e67a5a25da4107fffffffffffffffffff;\n        maxExpArray[ 49] = 0x0dcff115b14eedffffffffffffffffffff;\n        maxExpArray[ 50] = 0x0d3e7a392431239fffffffffffffffffff;\n        maxExpArray[ 51] = 0x0cb2ff529eb71e4fffffffffffffffffff;\n        maxExpArray[ 52] = 0x0c2d415c3db974afffffffffffffffffff;\n        maxExpArray[ 53] = 0x0bad03e7d883f69bffffffffffffffffff;\n        maxExpArray[ 54] = 0x0b320d03b2c343d5ffffffffffffffffff;\n        maxExpArray[ 55] = 0x0abc25204e02828dffffffffffffffffff;\n        maxExpArray[ 56] = 0x0a4b16f74ee4bb207fffffffffffffffff;\n        maxExpArray[ 57] = 0x09deaf736ac1f569ffffffffffffffffff;\n        maxExpArray[ 58] = 0x0976bd9952c7aa957fffffffffffffffff;\n        maxExpArray[ 59] = 0x09131271922eaa606fffffffffffffffff;\n        maxExpArray[ 60] = 0x08b380f3558668c46fffffffffffffffff;\n        maxExpArray[ 61] = 0x0857ddf0117efa215bffffffffffffffff;\n        maxExpArray[ 62] = 0x07ffffffffffffffffffffffffffffffff;\n        maxExpArray[ 63] = 0x07abbf6f6abb9d087fffffffffffffffff;\n        maxExpArray[ 64] = 0x075af62cbac95f7dfa7fffffffffffffff;\n        maxExpArray[ 65] = 0x070d7fb7452e187ac13fffffffffffffff;\n        maxExpArray[ 66] = 0x06c3390ecc8af379295fffffffffffffff;\n        maxExpArray[ 67] = 0x067c00a3b07ffc01fd6fffffffffffffff;\n        maxExpArray[ 68] = 0x0637b647c39cbb9d3d27ffffffffffffff;\n        maxExpArray[ 69] = 0x05f63b1fc104dbd39587ffffffffffffff;\n        maxExpArray[ 70] = 0x05b771955b36e12f7235ffffffffffffff;\n        maxExpArray[ 71] = 0x057b3d49dda84556d6f6ffffffffffffff;\n        maxExpArray[ 72] = 0x054183095b2c8ececf30ffffffffffffff;\n        maxExpArray[ 73] = 0x050a28be635ca2b888f77fffffffffffff;\n        maxExpArray[ 74] = 0x04d5156639708c9db33c3fffffffffffff;\n        maxExpArray[ 75] = 0x04a23105873875bd52dfdfffffffffffff;\n        maxExpArray[ 76] = 0x0471649d87199aa990756fffffffffffff;\n        maxExpArray[ 77] = 0x04429a21a029d4c1457cfbffffffffffff;\n        maxExpArray[ 78] = 0x0415bc6d6fb7dd71af2cb3ffffffffffff;\n        maxExpArray[ 79] = 0x03eab73b3bbfe282243ce1ffffffffffff;\n        maxExpArray[ 80] = 0x03c1771ac9fb6b4c18e229ffffffffffff;\n        maxExpArray[ 81] = 0x0399e96897690418f785257fffffffffff;\n        maxExpArray[ 82] = 0x0373fc456c53bb779bf0ea9fffffffffff;\n        maxExpArray[ 83] = 0x034f9e8e490c48e67e6ab8bfffffffffff;\n        maxExpArray[ 84] = 0x032cbfd4a7adc790560b3337ffffffffff;\n        maxExpArray[ 85] = 0x030b50570f6e5d2acca94613ffffffffff;\n        maxExpArray[ 86] = 0x02eb40f9f620fda6b56c2861ffffffffff;\n        maxExpArray[ 87] = 0x02cc8340ecb0d0f520a6af58ffffffffff;\n        maxExpArray[ 88] = 0x02af09481380a0a35cf1ba02ffffffffff;\n        maxExpArray[ 89] = 0x0292c5bdd3b92ec810287b1b3fffffffff;\n        maxExpArray[ 90] = 0x0277abdcdab07d5a77ac6d6b9fffffffff;\n        maxExpArray[ 91] = 0x025daf6654b1eaa55fd64df5efffffffff;\n        maxExpArray[ 92] = 0x0244c49c648baa98192dce88b7ffffffff;\n        maxExpArray[ 93] = 0x022ce03cd5619a311b2471268bffffffff;\n        maxExpArray[ 94] = 0x0215f77c045fbe885654a44a0fffffffff;\n        maxExpArray[ 95] = 0x01ffffffffffffffffffffffffffffffff;\n        maxExpArray[ 96] = 0x01eaefdbdaaee7421fc4d3ede5ffffffff;\n        maxExpArray[ 97] = 0x01d6bd8b2eb257df7e8ca57b09bfffffff;\n        maxExpArray[ 98] = 0x01c35fedd14b861eb0443f7f133fffffff;\n        maxExpArray[ 99] = 0x01b0ce43b322bcde4a56e8ada5afffffff;\n        maxExpArray[100] = 0x019f0028ec1fff007f5a195a39dfffffff;\n        maxExpArray[101] = 0x018ded91f0e72ee74f49b15ba527ffffff;\n        maxExpArray[102] = 0x017d8ec7f04136f4e5615fd41a63ffffff;\n        maxExpArray[103] = 0x016ddc6556cdb84bdc8d12d22e6fffffff;\n        maxExpArray[104] = 0x015ecf52776a1155b5bd8395814f7fffff;\n        maxExpArray[105] = 0x015060c256cb23b3b3cc3754cf40ffffff;\n        maxExpArray[106] = 0x01428a2f98d728ae223ddab715be3fffff;\n        maxExpArray[107] = 0x013545598e5c23276ccf0ede68034fffff;\n        maxExpArray[108] = 0x01288c4161ce1d6f54b7f61081194fffff;\n        maxExpArray[109] = 0x011c592761c666aa641d5a01a40f17ffff;\n        maxExpArray[110] = 0x0110a688680a7530515f3e6e6cfdcdffff;\n        maxExpArray[111] = 0x01056f1b5bedf75c6bcb2ce8aed428ffff;\n        maxExpArray[112] = 0x00faadceceeff8a0890f3875f008277fff;\n        maxExpArray[113] = 0x00f05dc6b27edad306388a600f6ba0bfff;\n        maxExpArray[114] = 0x00e67a5a25da41063de1495d5b18cdbfff;\n        maxExpArray[115] = 0x00dcff115b14eedde6fc3aa5353f2e4fff;\n        maxExpArray[116] = 0x00d3e7a3924312399f9aae2e0f868f8fff;\n        maxExpArray[117] = 0x00cb2ff529eb71e41582cccd5a1ee26fff;\n        maxExpArray[118] = 0x00c2d415c3db974ab32a51840c0b67edff;\n        maxExpArray[119] = 0x00bad03e7d883f69ad5b0a186184e06bff;\n        maxExpArray[120] = 0x00b320d03b2c343d4829abd6075f0cc5ff;\n        maxExpArray[121] = 0x00abc25204e02828d73c6e80bcdb1a95bf;\n        maxExpArray[122] = 0x00a4b16f74ee4bb2040a1ec6c15fbbf2df;\n        maxExpArray[123] = 0x009deaf736ac1f569deb1b5ae3f36c130f;\n        maxExpArray[124] = 0x00976bd9952c7aa957f5937d790ef65037;\n        maxExpArray[125] = 0x009131271922eaa6064b73a22d0bd4f2bf;\n        maxExpArray[126] = 0x008b380f3558668c46c91c49a2f8e967b9;\n        maxExpArray[127] = 0x00857ddf0117efa215952912839f6473e6;\n    }\n\n    /**\n        @dev given a token supply, connector balance, weight and a deposit amount (in the connector token),\n        calculates the return for a given conversion (in the main token)\n\n        Formula:\n        Return = _supply * ((1 + _depositAmount / _connectorBalance) ^ (_connectorWeight / 1000000) - 1)\n\n        @param _supply              token total supply\n        @param _connectorBalance    total connector balance\n        @param _connectorWeight     connector weight, represented in ppm, 1-1000000\n        @param _depositAmount       deposit amount, in connector token\n\n        @return purchase return amount\n    */\n    function calculatePurchaseReturn(uint256 _supply, uint256 _connectorBalance, uint32 _connectorWeight, uint256 _depositAmount) public view returns (uint256) {\n        // validate input\n        require(_supply > 0 && _connectorBalance > 0 && _connectorWeight > 0 && _connectorWeight <= MAX_WEIGHT);\n\n        // special case for 0 deposit amount\n        if (_depositAmount == 0)\n            return 0;\n\n        // special case if the weight = 100%\n        if (_connectorWeight == MAX_WEIGHT)\n            return safeMul(_supply, _depositAmount) / _connectorBalance;\n\n        uint256 result;\n        uint8 precision;\n        uint256 baseN = safeAdd(_depositAmount, _connectorBalance);\n        (result, precision) = power(baseN, _connectorBalance, _connectorWeight, MAX_WEIGHT);\n        uint256 temp = safeMul(_supply, result) >> precision;\n        return temp - _supply;\n    }\n\n    /**\n        @dev given a token supply, connector balance, weight and a sell amount (in the main token),\n        calculates the return for a given conversion (in the connector token)\n\n        Formula:\n        Return = _connectorBalance * (1 - (1 - _sellAmount / _supply) ^ (1 / (_connectorWeight / 1000000)))\n\n        @param _supply              token total supply\n        @param _connectorBalance    total connector\n        @param _connectorWeight     constant connector Weight, represented in ppm, 1-1000000\n        @param _sellAmount          sell amount, in the token itself\n\n        @return sale return amount\n    */\n    function calculateSaleReturn(uint256 _supply, uint256 _connectorBalance, uint32 _connectorWeight, uint256 _sellAmount) public view returns (uint256) {\n        // validate input\n        require(_supply > 0 && _connectorBalance > 0 && _connectorWeight > 0 && _connectorWeight <= MAX_WEIGHT && _sellAmount <= _supply);\n\n        // special case for 0 sell amount\n        if (_sellAmount == 0)\n            return 0;\n\n        // special case for selling the entire supply\n        if (_sellAmount == _supply)\n            return _connectorBalance;\n\n        // special case if the weight = 100%\n        if (_connectorWeight == MAX_WEIGHT)\n            return safeMul(_connectorBalance, _sellAmount) / _supply;\n\n        uint256 result;\n        uint8 precision;\n        uint256 baseD = _supply - _sellAmount;\n        (result, precision) = power(_supply, baseD, MAX_WEIGHT, _connectorWeight);\n        uint256 temp1 = safeMul(_connectorBalance, result);\n        uint256 temp2 = _connectorBalance << precision;\n        return (temp1 - temp2) / result;\n    }\n\n    /**\n        General Description:\n            Determine a value of precision.\n            Calculate an integer approximation of (_baseN / _baseD) ^ (_expN / _expD) * 2 ^ precision.\n            Return the result along with the precision used.\n\n        Detailed Description:\n            Instead of calculating \"base ^ exp\", we calculate \"e ^ (log(base) * exp)\".\n            The value of \"log(base)\" is represented with an integer slightly smaller than \"log(base) * 2 ^ precision\".\n            The larger \"precision\" is, the more accurately this value represents the real value.\n            However, the larger \"precision\" is, the more bits are required in order to store this value.\n            And the exponentiation function, which takes \"x\" and calculates \"e ^ x\", is limited to a maximum exponent (maximum value of \"x\").\n            This maximum exponent depends on the \"precision\" used, and it is given by \"maxExpArray[precision] >> (MAX_PRECISION - precision)\".\n            Hence we need to determine the highest precision which can be used for the given input, before calling the exponentiation function.\n            This allows us to compute \"base ^ exp\" with maximum accuracy and without exceeding 256 bits in any of the intermediate computations.\n            This functions assumes that \"_expN < 2 ^ 256 / log(MAX_NUM - 1)\", otherwise the multiplication should be replaced with a \"safeMul\".\n    */\n    function power(uint256 _baseN, uint256 _baseD, uint32 _expN, uint32 _expD) public view returns (uint256, uint8) {\n        assert(_baseN < MAX_NUM);\n\n        uint256 baseLog;\n        uint256 base = _baseN * FIXED_1 / _baseD;\n        if (base < OPT_LOG_MAX_VAL) {\n            baseLog = optimalLog(base);\n        }\n        else {\n            baseLog = generalLog(base);\n        }\n\n        uint256 baseLogTimesExp = baseLog * _expN / _expD;\n        if (baseLogTimesExp < OPT_EXP_MAX_VAL) {\n            return (optimalExp(baseLogTimesExp), MAX_PRECISION);\n        }\n        else {\n            uint8 precision = findPositionInMaxExpArray(baseLogTimesExp);\n            return (generalExp(baseLogTimesExp >> (MAX_PRECISION - precision), precision), precision);\n        }\n    }\n\n    /**\n        Compute log(x / FIXED_1) * FIXED_1.\n        This functions assumes that \"x >= FIXED_1\", because the output would be negative otherwise.\n    */\n    function generalLog(uint256 x) public pure returns (uint256) {\n        uint256 res = 0;\n\n        // If x >= 2, then we compute the integer part of log2(x), which is larger than 0.\n        if (x >= FIXED_2) {\n            uint8 count = floorLog2(x / FIXED_1);\n            x >>= count; // now x < 2\n            res = count * FIXED_1;\n        }\n\n        // If x > 1, then we compute the fraction part of log2(x), which is larger than 0.\n        if (x > FIXED_1) {\n            for (uint8 i = MAX_PRECISION; i > 0; --i) {\n                x = (x * x) / FIXED_1; // now 1 < x < 4\n                if (x >= FIXED_2) {\n                    x >>= 1; // now 1 < x < 2\n                    res += ONE << (i - 1);\n                }\n            }\n        }\n\n        return res * LN2_NUMERATOR / LN2_DENOMINATOR;\n    }\n\n    /**\n        Compute the largest integer smaller than or equal to the binary logarithm of the input.\n    */\n    function floorLog2(uint256 _n) public pure returns (uint8) {\n        uint8 res = 0;\n\n        if (_n < 256) {\n            // At most 8 iterations\n            while (_n > 1) {\n                _n >>= 1;\n                res += 1;\n            }\n        }\n        else {\n            // Exactly 8 iterations\n            for (uint8 s = 128; s > 0; s >>= 1) {\n                if (_n >= (ONE << s)) {\n                    _n >>= s;\n                    res |= s;\n                }\n            }\n        }\n\n        return res;\n    }\n\n    /**\n        The global \"maxExpArray\" is sorted in descending order, and therefore the following statements are equivalent:\n        - This function finds the position of [the smallest value in \"maxExpArray\" larger than or equal to \"x\"]\n        - This function finds the highest position of [a value in \"maxExpArray\" larger than or equal to \"x\"]\n    */\n    function findPositionInMaxExpArray(uint256 _x) public view returns (uint8) {\n        uint8 lo = MIN_PRECISION;\n        uint8 hi = MAX_PRECISION;\n\n        while (lo + 1 < hi) {\n            uint8 mid = (lo + hi) / 2;\n            if (maxExpArray[mid] >= _x)\n                lo = mid;\n            else\n                hi = mid;\n        }\n\n        if (maxExpArray[hi] >= _x)\n            return hi;\n        if (maxExpArray[lo] >= _x)\n            return lo;\n\n        assert(false);\n        return 0;\n    }\n\n    /**\n        This function can be auto-generated by the script 'PrintFunctionGeneralExp.py'.\n        It approximates \"e ^ x\" via maclaurin summation: \"(x^0)/0! + (x^1)/1! + ... + (x^n)/n!\".\n        It returns \"e ^ (x / 2 ^ precision) * 2 ^ precision\", that is, the result is upshifted for accuracy.\n        The global \"maxExpArray\" maps each \"precision\" to \"((maximumExponent + 1) << (MAX_PRECISION - precision)) - 1\".\n        The maximum permitted value for \"x\" is therefore given by \"maxExpArray[precision] >> (MAX_PRECISION - precision)\".\n    */\n    function generalExp(uint256 _x, uint8 _precision) public pure returns (uint256) {\n        uint256 xi = _x;\n        uint256 res = 0;\n\n        xi = (xi * _x) >> _precision; res += xi * 0x3442c4e6074a82f1797f72ac0000000; // add x^02 * (33! / 02!)\n        xi = (xi * _x) >> _precision; res += xi * 0x116b96f757c380fb287fd0e40000000; // add x^03 * (33! / 03!)\n        xi = (xi * _x) >> _precision; res += xi * 0x045ae5bdd5f0e03eca1ff4390000000; // add x^04 * (33! / 04!)\n        xi = (xi * _x) >> _precision; res += xi * 0x00defabf91302cd95b9ffda50000000; // add x^05 * (33! / 05!)\n        xi = (xi * _x) >> _precision; res += xi * 0x002529ca9832b22439efff9b8000000; // add x^06 * (33! / 06!)\n        xi = (xi * _x) >> _precision; res += xi * 0x00054f1cf12bd04e516b6da88000000; // add x^07 * (33! / 07!)\n        xi = (xi * _x) >> _precision; res += xi * 0x0000a9e39e257a09ca2d6db51000000; // add x^08 * (33! / 08!)\n        xi = (xi * _x) >> _precision; res += xi * 0x000012e066e7b839fa050c309000000; // add x^09 * (33! / 09!)\n        xi = (xi * _x) >> _precision; res += xi * 0x000001e33d7d926c329a1ad1a800000; // add x^10 * (33! / 10!)\n        xi = (xi * _x) >> _precision; res += xi * 0x0000002bee513bdb4a6b19b5f800000; // add x^11 * (33! / 11!)\n        xi = (xi * _x) >> _precision; res += xi * 0x00000003a9316fa79b88eccf2a00000; // add x^12 * (33! / 12!)\n        xi = (xi * _x) >> _precision; res += xi * 0x0000000048177ebe1fa812375200000; // add x^13 * (33! / 13!)\n        xi = (xi * _x) >> _precision; res += xi * 0x0000000005263fe90242dcbacf00000; // add x^14 * (33! / 14!)\n        xi = (xi * _x) >> _precision; res += xi * 0x000000000057e22099c030d94100000; // add x^15 * (33! / 15!)\n        xi = (xi * _x) >> _precision; res += xi * 0x0000000000057e22099c030d9410000; // add x^16 * (33! / 16!)\n        xi = (xi * _x) >> _precision; res += xi * 0x00000000000052b6b54569976310000; // add x^17 * (33! / 17!)\n        xi = (xi * _x) >> _precision; res += xi * 0x00000000000004985f67696bf748000; // add x^18 * (33! / 18!)\n        xi = (xi * _x) >> _precision; res += xi * 0x000000000000003dea12ea99e498000; // add x^19 * (33! / 19!)\n        xi = (xi * _x) >> _precision; res += xi * 0x00000000000000031880f2214b6e000; // add x^20 * (33! / 20!)\n        xi = (xi * _x) >> _precision; res += xi * 0x000000000000000025bcff56eb36000; // add x^21 * (33! / 21!)\n        xi = (xi * _x) >> _precision; res += xi * 0x000000000000000001b722e10ab1000; // add x^22 * (33! / 22!)\n        xi = (xi * _x) >> _precision; res += xi * 0x0000000000000000001317c70077000; // add x^23 * (33! / 23!)\n        xi = (xi * _x) >> _precision; res += xi * 0x00000000000000000000cba84aafa00; // add x^24 * (33! / 24!)\n        xi = (xi * _x) >> _precision; res += xi * 0x00000000000000000000082573a0a00; // add x^25 * (33! / 25!)\n        xi = (xi * _x) >> _precision; res += xi * 0x00000000000000000000005035ad900; // add x^26 * (33! / 26!)\n        xi = (xi * _x) >> _precision; res += xi * 0x000000000000000000000002f881b00; // add x^27 * (33! / 27!)\n        xi = (xi * _x) >> _precision; res += xi * 0x0000000000000000000000001b29340; // add x^28 * (33! / 28!)\n        xi = (xi * _x) >> _precision; res += xi * 0x00000000000000000000000000efc40; // add x^29 * (33! / 29!)\n        xi = (xi * _x) >> _precision; res += xi * 0x0000000000000000000000000007fe0; // add x^30 * (33! / 30!)\n        xi = (xi * _x) >> _precision; res += xi * 0x0000000000000000000000000000420; // add x^31 * (33! / 31!)\n        xi = (xi * _x) >> _precision; res += xi * 0x0000000000000000000000000000021; // add x^32 * (33! / 32!)\n        xi = (xi * _x) >> _precision; res += xi * 0x0000000000000000000000000000001; // add x^33 * (33! / 33!)\n\n        return res / 0x688589cc0e9505e2f2fee5580000000 + _x + (ONE << _precision); // divide by 33! and then add x^1 / 1! + x^0 / 0!\n    }\n\n    /**\n        Return log(x / FIXED_1) * FIXED_1\n        Input range: FIXED_1 <= x <= LOG_EXP_MAX_VAL - 1\n        Auto-generated via 'PrintFunctionOptimalLog.py'\n    */\n    function optimalLog(uint256 x) public pure returns (uint256) {\n        uint256 res = 0;\n\n        uint256 y;\n        uint256 z;\n        uint256 w;\n\n        if (x >= 0xd3094c70f034de4b96ff7d5b6f99fcd8) {res += 0x40000000000000000000000000000000; x = x * FIXED_1 / 0xd3094c70f034de4b96ff7d5b6f99fcd8;}\n        if (x >= 0xa45af1e1f40c333b3de1db4dd55f29a7) {res += 0x20000000000000000000000000000000; x = x * FIXED_1 / 0xa45af1e1f40c333b3de1db4dd55f29a7;}\n        if (x >= 0x910b022db7ae67ce76b441c27035c6a1) {res += 0x10000000000000000000000000000000; x = x * FIXED_1 / 0x910b022db7ae67ce76b441c27035c6a1;}\n        if (x >= 0x88415abbe9a76bead8d00cf112e4d4a8) {res += 0x08000000000000000000000000000000; x = x * FIXED_1 / 0x88415abbe9a76bead8d00cf112e4d4a8;}\n        if (x >= 0x84102b00893f64c705e841d5d4064bd3) {res += 0x04000000000000000000000000000000; x = x * FIXED_1 / 0x84102b00893f64c705e841d5d4064bd3;}\n        if (x >= 0x8204055aaef1c8bd5c3259f4822735a2) {res += 0x02000000000000000000000000000000; x = x * FIXED_1 / 0x8204055aaef1c8bd5c3259f4822735a2;}\n        if (x >= 0x810100ab00222d861931c15e39b44e99) {res += 0x01000000000000000000000000000000; x = x * FIXED_1 / 0x810100ab00222d861931c15e39b44e99;}\n        if (x >= 0x808040155aabbbe9451521693554f733) {res += 0x00800000000000000000000000000000; x = x * FIXED_1 / 0x808040155aabbbe9451521693554f733;}\n\n        z = y = x - FIXED_1;\n        w = y * y / FIXED_1;\n        res += z * (0x100000000000000000000000000000000 - y) / 0x100000000000000000000000000000000; z = z * w / FIXED_1;\n        res += z * (0x0aaaaaaaaaaaaaaaaaaaaaaaaaaaaaaaa - y) / 0x200000000000000000000000000000000; z = z * w / FIXED_1;\n        res += z * (0x099999999999999999999999999999999 - y) / 0x300000000000000000000000000000000; z = z * w / FIXED_1;\n        res += z * (0x092492492492492492492492492492492 - y) / 0x400000000000000000000000000000000; z = z * w / FIXED_1;\n        res += z * (0x08e38e38e38e38e38e38e38e38e38e38e - y) / 0x500000000000000000000000000000000; z = z * w / FIXED_1;\n        res += z * (0x08ba2e8ba2e8ba2e8ba2e8ba2e8ba2e8b - y) / 0x600000000000000000000000000000000; z = z * w / FIXED_1;\n        res += z * (0x089d89d89d89d89d89d89d89d89d89d89 - y) / 0x700000000000000000000000000000000; z = z * w / FIXED_1;\n        res += z * (0x088888888888888888888888888888888 - y) / 0x800000000000000000000000000000000;\n\n        return res;\n    }\n\n    /**\n        Return e ^ (x / FIXED_1) * FIXED_1\n        Input range: 0 <= x <= OPT_EXP_MAX_VAL - 1\n        Auto-generated via 'PrintFunctionOptimalExp.py'\n    */\n    function optimalExp(uint256 x) public pure returns (uint256) {\n        uint256 res = 0;\n\n        uint256 y;\n        uint256 z;\n\n        z = y = x % 0x10000000000000000000000000000000;\n        z = z * y / FIXED_1; res += z * 0x10e1b3be415a0000; // add y^02 * (20! / 02!)\n        z = z * y / FIXED_1; res += z * 0x05a0913f6b1e0000; // add y^03 * (20! / 03!)\n        z = z * y / FIXED_1; res += z * 0x0168244fdac78000; // add y^04 * (20! / 04!)\n        z = z * y / FIXED_1; res += z * 0x004807432bc18000; // add y^05 * (20! / 05!)\n        z = z * y / FIXED_1; res += z * 0x000c0135dca04000; // add y^06 * (20! / 06!)\n        z = z * y / FIXED_1; res += z * 0x0001b707b1cdc000; // add y^07 * (20! / 07!)\n        z = z * y / FIXED_1; res += z * 0x000036e0f639b800; // add y^08 * (20! / 08!)\n        z = z * y / FIXED_1; res += z * 0x00000618fee9f800; // add y^09 * (20! / 09!)\n        z = z * y / FIXED_1; res += z * 0x0000009c197dcc00; // add y^10 * (20! / 10!)\n        z = z * y / FIXED_1; res += z * 0x0000000e30dce400; // add y^11 * (20! / 11!)\n        z = z * y / FIXED_1; res += z * 0x000000012ebd1300; // add y^12 * (20! / 12!)\n        z = z * y / FIXED_1; res += z * 0x0000000017499f00; // add y^13 * (20! / 13!)\n        z = z * y / FIXED_1; res += z * 0x0000000001a9d480; // add y^14 * (20! / 14!)\n        z = z * y / FIXED_1; res += z * 0x00000000001c6380; // add y^15 * (20! / 15!)\n        z = z * y / FIXED_1; res += z * 0x000000000001c638; // add y^16 * (20! / 16!)\n        z = z * y / FIXED_1; res += z * 0x0000000000001ab8; // add y^17 * (20! / 17!)\n        z = z * y / FIXED_1; res += z * 0x000000000000017c; // add y^18 * (20! / 18!)\n        z = z * y / FIXED_1; res += z * 0x0000000000000014; // add y^19 * (20! / 19!)\n        z = z * y / FIXED_1; res += z * 0x0000000000000001; // add y^20 * (20! / 20!)\n        res = res / 0x21c3677c82b40000 + y + FIXED_1; // divide by 20! and then add y^1 / 1! + y^0 / 0!\n\n        if ((x & 0x010000000000000000000000000000000) != 0) res = res * 0x1c3d6a24ed82218787d624d3e5eba95f9 / 0x18ebef9eac820ae8682b9793ac6d1e776;\n        if ((x & 0x020000000000000000000000000000000) != 0) res = res * 0x18ebef9eac820ae8682b9793ac6d1e778 / 0x1368b2fc6f9609fe7aceb46aa619baed4;\n        if ((x & 0x040000000000000000000000000000000) != 0) res = res * 0x1368b2fc6f9609fe7aceb46aa619baed5 / 0x0bc5ab1b16779be3575bd8f0520a9f21f;\n        if ((x & 0x080000000000000000000000000000000) != 0) res = res * 0x0bc5ab1b16779be3575bd8f0520a9f21e / 0x0454aaa8efe072e7f6ddbab84b40a55c9;\n        if ((x & 0x100000000000000000000000000000000) != 0) res = res * 0x0454aaa8efe072e7f6ddbab84b40a55c5 / 0x00960aadc109e7a3bf4578099615711ea;\n        if ((x & 0x200000000000000000000000000000000) != 0) res = res * 0x00960aadc109e7a3bf4578099615711d7 / 0x0002bf84208204f5977f9a8cf01fdce3d;\n        if ((x & 0x400000000000000000000000000000000) != 0) res = res * 0x0002bf84208204f5977f9a8cf01fdc307 / 0x0000003c6ab775dd0b95b4cbee7e65d11;\n\n        return res;\n    }\n\n//safeMath\n    function safeAdd(uint256 _x, uint256 _y) public pure returns (uint256) {\n        uint256 z = _x + _y;\n        assert(z >= _x);\n        return z;\n    }\n\n    function safeMul(uint256 _x, uint256 _y) public pure returns (uint256) {\n        uint256 z = _x * _y;\n        assert(_x == 0 || z / _x == _y);\n        return z;\n    }\n}\n",
  "sourcePath": "/Users/zacharymitton/Dropbox/zac_mitton/dev/ethereum/mirage/contracts/Bancor.sol",
  "compiler": {
    "name": "solc",
    "version": "0.4.24+commit.e67f0147.Emscripten.clang"
  },
  "schemaVersion": "2.0.0",
  "updatedAt": "2018-08-22T13:17:23.791Z"
}