{
  "contractName": "Mint",
  "abi": [
    {
      "constant": true,
      "inputs": [],
      "name": "excessReserves",
      "outputs": [
        {
          "name": "",
          "type": "uint256"
        }
      ],
      "payable": false,
      "stateMutability": "view",
      "type": "function"
    },
    {
      "constant": true,
      "inputs": [],
      "name": "reservePPB",
      "outputs": [
        {
          "name": "",
          "type": "uint256"
        }
      ],
      "payable": false,
      "stateMutability": "view",
      "type": "function"
    }
  ],
  "bytecode": "0x60f161002f600b82828239805160001a6073146000811461001f57610021565bfe5b5030600052607381538281f30073000000000000000000000000000000000000000030146080604052600436106060576000357c0100000000000000000000000000000000000000000000000000000000900463ffffffff1680630c3513a8146065578063d626688a146081575b600080fd5b606b609d565b6040518082815260200191505060405180910390f35b608760bc565b6040518082815260200191505060405180910390f35b60003073ffffffffffffffffffffffffffffffffffffffff1631905090565b600060059050905600a165627a7a7230582018ba18c1e902c3cbaee66f93f8231d36712cba61322e2f0be3f0272b87b435f70029",
  "source": "pragma solidity 0.4.24;\n\nimport \"./Pow.sol\";\n\nlibrary Mint{\n\n\n\n  function excessReserves() view returns(uint){\n    //make sure this number rounds down\n    //make sure all scoping is correct\n    return address(this).balance ;// - (this.totalSupply / 1000000000 * reservePPB());\n  }\n  // function reserves() view returns(uint){ return mirageToken.balance; }\n\n  // fractional reserve ratio in parts per billion\n  // should depend on time and not change from minting/burning\n  function reservePPB() view returns (uint){\n    // seconds in 18 months (moore) = 47304000\n    // 1.00000001465303538\n    // todo: this has to actually compute the shit in parts per billion\n    return  5;// Pow.exp10(10000000147, (now - this.createdAt));\n  } //view\n}\n\n\n\n\n\n",
  "sourcePath": "/Users/zacharymitton/Dropbox/zac_mitton/dev/ethereum/mirage/contracts/Mint.sol",
  "compiler": {
    "name": "solc",
    "version": "0.4.24+commit.e67f0147.Emscripten.clang"
  },
  "schemaVersion": "2.0.0",
  "updatedAt": "2018-05-27T14:29:50.571Z"
}