{
  "contractName": "MirageToken",
  "abi": [
    {
      "constant": false,
      "inputs": [
        {
          "name": "_spender",
          "type": "address"
        },
        {
          "name": "_value",
          "type": "uint256"
        }
      ],
      "name": "approve",
      "outputs": [
        {
          "name": "",
          "type": "bool"
        }
      ],
      "payable": false,
      "stateMutability": "nonpayable",
      "type": "function"
    },
    {
      "constant": true,
      "inputs": [],
      "name": "totalSupply",
      "outputs": [
        {
          "name": "",
          "type": "uint256"
        }
      ],
      "payable": false,
      "stateMutability": "view",
      "type": "function"
    },
    {
      "constant": false,
      "inputs": [
        {
          "name": "_from",
          "type": "address"
        },
        {
          "name": "_to",
          "type": "address"
        },
        {
          "name": "_value",
          "type": "uint256"
        }
      ],
      "name": "transferFrom",
      "outputs": [
        {
          "name": "",
          "type": "bool"
        }
      ],
      "payable": false,
      "stateMutability": "nonpayable",
      "type": "function"
    },
    {
      "constant": false,
      "inputs": [
        {
          "name": "_to",
          "type": "address"
        },
        {
          "name": "_value",
          "type": "uint256"
        },
        {
          "name": "_data",
          "type": "bytes"
        }
      ],
      "name": "transferAndCall",
      "outputs": [
        {
          "name": "",
          "type": "bool"
        }
      ],
      "payable": true,
      "stateMutability": "payable",
      "type": "function"
    },
    {
      "constant": true,
      "inputs": [],
      "name": "devDao",
      "outputs": [
        {
          "name": "",
          "type": "address"
        }
      ],
      "payable": false,
      "stateMutability": "view",
      "type": "function"
    },
    {
      "constant": true,
      "inputs": [],
      "name": "bancor",
      "outputs": [
        {
          "name": "",
          "type": "address"
        }
      ],
      "payable": false,
      "stateMutability": "view",
      "type": "function"
    },
    {
      "constant": false,
      "inputs": [
        {
          "name": "_spender",
          "type": "address"
        },
        {
          "name": "_subtractedValue",
          "type": "uint256"
        }
      ],
      "name": "decreaseApproval",
      "outputs": [
        {
          "name": "",
          "type": "bool"
        }
      ],
      "payable": false,
      "stateMutability": "nonpayable",
      "type": "function"
    },
    {
      "constant": true,
      "inputs": [
        {
          "name": "_owner",
          "type": "address"
        }
      ],
      "name": "balanceOf",
      "outputs": [
        {
          "name": "",
          "type": "uint256"
        }
      ],
      "payable": false,
      "stateMutability": "view",
      "type": "function"
    },
    {
      "constant": false,
      "inputs": [
        {
          "name": "_spender",
          "type": "address"
        },
        {
          "name": "_addedValue",
          "type": "uint256"
        },
        {
          "name": "_data",
          "type": "bytes"
        }
      ],
      "name": "increaseApprovalAndCall",
      "outputs": [
        {
          "name": "",
          "type": "bool"
        }
      ],
      "payable": true,
      "stateMutability": "payable",
      "type": "function"
    },
    {
      "constant": true,
      "inputs": [],
      "name": "E6",
      "outputs": [
        {
          "name": "",
          "type": "uint256"
        }
      ],
      "payable": false,
      "stateMutability": "view",
      "type": "function"
    },
    {
      "constant": false,
      "inputs": [
        {
          "name": "_to",
          "type": "address"
        },
        {
          "name": "_value",
          "type": "uint256"
        }
      ],
      "name": "transfer",
      "outputs": [
        {
          "name": "",
          "type": "bool"
        }
      ],
      "payable": false,
      "stateMutability": "nonpayable",
      "type": "function"
    },
    {
      "constant": false,
      "inputs": [
        {
          "name": "_from",
          "type": "address"
        },
        {
          "name": "_to",
          "type": "address"
        },
        {
          "name": "_value",
          "type": "uint256"
        },
        {
          "name": "_data",
          "type": "bytes"
        }
      ],
      "name": "transferFromAndCall",
      "outputs": [
        {
          "name": "",
          "type": "bool"
        }
      ],
      "payable": true,
      "stateMutability": "payable",
      "type": "function"
    },
    {
      "constant": false,
      "inputs": [
        {
          "name": "_spender",
          "type": "address"
        },
        {
          "name": "_value",
          "type": "uint256"
        },
        {
          "name": "_data",
          "type": "bytes"
        }
      ],
      "name": "approveAndCall",
      "outputs": [
        {
          "name": "",
          "type": "bool"
        }
      ],
      "payable": true,
      "stateMutability": "payable",
      "type": "function"
    },
    {
      "constant": false,
      "inputs": [
        {
          "name": "_spender",
          "type": "address"
        },
        {
          "name": "_subtractedValue",
          "type": "uint256"
        },
        {
          "name": "_data",
          "type": "bytes"
        }
      ],
      "name": "decreaseApprovalAndCall",
      "outputs": [
        {
          "name": "",
          "type": "bool"
        }
      ],
      "payable": true,
      "stateMutability": "payable",
      "type": "function"
    },
    {
      "constant": true,
      "inputs": [],
      "name": "createdAt",
      "outputs": [
        {
          "name": "",
          "type": "uint256"
        }
      ],
      "payable": false,
      "stateMutability": "view",
      "type": "function"
    },
    {
      "constant": false,
      "inputs": [
        {
          "name": "_spender",
          "type": "address"
        },
        {
          "name": "_addedValue",
          "type": "uint256"
        }
      ],
      "name": "increaseApproval",
      "outputs": [
        {
          "name": "",
          "type": "bool"
        }
      ],
      "payable": false,
      "stateMutability": "nonpayable",
      "type": "function"
    },
    {
      "constant": true,
      "inputs": [
        {
          "name": "_owner",
          "type": "address"
        },
        {
          "name": "_spender",
          "type": "address"
        }
      ],
      "name": "allowance",
      "outputs": [
        {
          "name": "",
          "type": "uint256"
        }
      ],
      "payable": false,
      "stateMutability": "view",
      "type": "function"
    },
    {
      "constant": true,
      "inputs": [],
      "name": "lastSpotPrice_x_E6",
      "outputs": [
        {
          "name": "",
          "type": "uint256"
        }
      ],
      "payable": false,
      "stateMutability": "view",
      "type": "function"
    },
    {
      "inputs": [],
      "payable": false,
      "stateMutability": "nonpayable",
      "type": "constructor"
    },
    {
      "anonymous": false,
      "inputs": [
        {
          "indexed": true,
          "name": "owner",
          "type": "address"
        },
        {
          "indexed": true,
          "name": "spender",
          "type": "address"
        },
        {
          "indexed": false,
          "name": "value",
          "type": "uint256"
        }
      ],
      "name": "Approval",
      "type": "event"
    },
    {
      "anonymous": false,
      "inputs": [
        {
          "indexed": true,
          "name": "from",
          "type": "address"
        },
        {
          "indexed": true,
          "name": "to",
          "type": "address"
        },
        {
          "indexed": false,
          "name": "value",
          "type": "uint256"
        }
      ],
      "name": "Transfer",
      "type": "event"
    },
    {
      "constant": false,
      "inputs": [],
      "name": "updateEthReserves",
      "outputs": [],
      "payable": false,
      "stateMutability": "nonpayable",
      "type": "function"
    },
    {
      "constant": false,
      "inputs": [],
      "name": "buy",
      "outputs": [],
      "payable": true,
      "stateMutability": "payable",
      "type": "function"
    },
    {
      "constant": false,
      "inputs": [
        {
          "name": "amount",
          "type": "uint256"
        }
      ],
      "name": "sell",
      "outputs": [],
      "payable": false,
      "stateMutability": "nonpayable",
      "type": "function"
    },
    {
      "constant": true,
      "inputs": [],
      "name": "timeSinceGenesis",
      "outputs": [
        {
          "name": "",
          "type": "uint32"
        }
      ],
      "payable": false,
      "stateMutability": "view",
      "type": "function"
    },
    {
      "constant": true,
      "inputs": [],
      "name": "reserveRatio_x_E6",
      "outputs": [
        {
          "name": "",
          "type": "uint256"
        }
      ],
      "payable": false,
      "stateMutability": "view",
      "type": "function"
    }
  ],
  "bytecode": "0x6080604052620f42406008553480156200001857600080fd5b5042600581905550620f42406007819055506200003462000100565b604051809103906000f08015801562000051573d6000803e3d6000fd5b50600360006101000a81548173ffffffffffffffffffffffffffffffffffffffff021916908373ffffffffffffffffffffffffffffffffffffffff1602179055506200009c62000110565b604051809103906000f080158015620000b9573d6000803e3d6000fd5b50600460006101000a81548173ffffffffffffffffffffffffffffffffffffffff021916908373ffffffffffffffffffffffffffffffffffffffff16021790555062000121565b604051604f80620021e883390190565b604051612aca806200223783390190565b6120b780620001316000396000f300608060405260043610610133576000357c0100000000000000000000000000000000000000000000000000000000900463ffffffff168063095ea7b31461013857806318160ddd1461019d57806323b872dd146101c85780634000aea01461024d57806345780f10146102eb5780635f4f3c7514610302578063639905b41461035957806366188463146103b057806370a082311461041557806384e7a6a41461046c57806390db623f146104a3578063933311c2146105415780639ce22bbb1461056c578063a6f2ae3a14610597578063a9059cbb146105a1578063c1d34b8914610606578063cae9ca51146106c4578063cb3993be14610762578063cf09e0d014610800578063d73dd6231461082b578063dd62ed3e14610890578063e4849b3214610907578063fc118a0f14610934575b600080fd5b34801561014457600080fd5b50610183600480360381019080803573ffffffffffffffffffffffffffffffffffffffff1690602001909291908035906020019092919050505061095f565b604051808215151515815260200191505060405180910390f35b3480156101a957600080fd5b506101b2610a51565b6040518082815260200191505060405180910390f35b3480156101d457600080fd5b50610233600480360381019080803573ffffffffffffffffffffffffffffffffffffffff169060200190929190803573ffffffffffffffffffffffffffffffffffffffff16906020019092919080359060200190929190505050610a57565b604051808215151515815260200191505060405180910390f35b6102d1600480360381019080803573ffffffffffffffffffffffffffffffffffffffff16906020019092919080359060200190929190803590602001908201803590602001908080601f0160208091040260200160405190810160405280939291908181526020018383808284378201915050505050509192919290505050610e11565b604051808215151515815260200191505060405180910390f35b3480156102f757600080fd5b50610300610ef7565b005b34801561030e57600080fd5b50610317610fac565b604051808273ffffffffffffffffffffffffffffffffffffffff1673ffffffffffffffffffffffffffffffffffffffff16815260200191505060405180910390f35b34801561036557600080fd5b5061036e610fd2565b604051808273ffffffffffffffffffffffffffffffffffffffff1673ffffffffffffffffffffffffffffffffffffffff16815260200191505060405180910390f35b3480156103bc57600080fd5b506103fb600480360381019080803573ffffffffffffffffffffffffffffffffffffffff16906020019092919080359060200190929190505050610ff8565b604051808215151515815260200191505060405180910390f35b34801561042157600080fd5b50610456600480360381019080803573ffffffffffffffffffffffffffffffffffffffff169060200190929190505050611289565b6040518082815260200191505060405180910390f35b34801561047857600080fd5b506104816112d1565b604051808263ffffffff1663ffffffff16815260200191505060405180910390f35b610527600480360381019080803573ffffffffffffffffffffffffffffffffffffffff16906020019092919080359060200190929190803590602001908201803590602001908080601f01602080910402602001604051908101604052809392919081815260200183838082843782019150505050505091929192905050506112dd565b604051808215151515815260200191505060405180910390f35b34801561054d57600080fd5b506105566113c3565b6040518082815260200191505060405180910390f35b34801561057857600080fd5b506105816114fa565b6040518082815260200191505060405180910390f35b61059f611500565b005b3480156105ad57600080fd5b506105ec600480360381019080803573ffffffffffffffffffffffffffffffffffffffff16906020019092919080359060200190929190505050611512565b604051808215151515815260200191505060405180910390f35b6106aa600480360381019080803573ffffffffffffffffffffffffffffffffffffffff169060200190929190803573ffffffffffffffffffffffffffffffffffffffff16906020019092919080359060200190929190803590602001908201803590602001908080601f0160208091040260200160405190810160405280939291908181526020018383808284378201915050505050509192919290505050611731565b604051808215151515815260200191505060405180910390f35b610748600480360381019080803573ffffffffffffffffffffffffffffffffffffffff16906020019092919080359060200190929190803590602001908201803590602001908080601f0160208091040260200160405190810160405280939291908181526020018383808284378201915050505050509192919290505050611819565b604051808215151515815260200191505060405180910390f35b6107e6600480360381019080803573ffffffffffffffffffffffffffffffffffffffff16906020019092919080359060200190929190803590602001908201803590602001908080601f01602080910402602001604051908101604052809392919081815260200183838082843782019150505050505091929192905050506118ff565b604051808215151515815260200191505060405180910390f35b34801561080c57600080fd5b506108156119e5565b6040518082815260200191505060405180910390f35b34801561083757600080fd5b50610876600480360381019080803573ffffffffffffffffffffffffffffffffffffffff169060200190929190803590602001909291905050506119eb565b604051808215151515815260200191505060405180910390f35b34801561089c57600080fd5b506108f1600480360381019080803573ffffffffffffffffffffffffffffffffffffffff169060200190929190803573ffffffffffffffffffffffffffffffffffffffff169060200190929190505050611be7565b6040518082815260200191505060405180910390f35b34801561091357600080fd5b5061093260048036038101908080359060200190929190505050611c6e565b005b34801561094057600080fd5b50610949611c82565b6040518082815260200191505060405180910390f35b600081600260003373ffffffffffffffffffffffffffffffffffffffff1673ffffffffffffffffffffffffffffffffffffffff16815260200190815260200160002060008573ffffffffffffffffffffffffffffffffffffffff1673ffffffffffffffffffffffffffffffffffffffff168152602001908152602001600020819055508273ffffffffffffffffffffffffffffffffffffffff163373ffffffffffffffffffffffffffffffffffffffff167f8c5be1e5ebec7d5bd14f71427d1e84f3dd0314c0f7b2291e5b200ac8c7c3b925846040518082815260200191505060405180910390a36001905092915050565b60065481565b60008073ffffffffffffffffffffffffffffffffffffffff168373ffffffffffffffffffffffffffffffffffffffff1614151515610a9457600080fd5b6000808573ffffffffffffffffffffffffffffffffffffffff1673ffffffffffffffffffffffffffffffffffffffff168152602001908152602001600020548211151515610ae157600080fd5b600260008573ffffffffffffffffffffffffffffffffffffffff1673ffffffffffffffffffffffffffffffffffffffff16815260200190815260200160002060003373ffffffffffffffffffffffffffffffffffffffff1673ffffffffffffffffffffffffffffffffffffffff168152602001908152602001600020548211151515610b6c57600080fd5b610bbd826000808773ffffffffffffffffffffffffffffffffffffffff1673ffffffffffffffffffffffffffffffffffffffff16815260200190815260200160002054611c8890919063ffffffff16565b6000808673ffffffffffffffffffffffffffffffffffffffff1673ffffffffffffffffffffffffffffffffffffffff16815260200190815260200160002081905550610c50826000808673ffffffffffffffffffffffffffffffffffffffff1673ffffffffffffffffffffffffffffffffffffffff16815260200190815260200160002054611ca190919063ffffffff16565b6000808573ffffffffffffffffffffffffffffffffffffffff1673ffffffffffffffffffffffffffffffffffffffff16815260200190815260200160002081905550610d2182600260008773ffffffffffffffffffffffffffffffffffffffff1673ffffffffffffffffffffffffffffffffffffffff16815260200190815260200160002060003373ffffffffffffffffffffffffffffffffffffffff1673ffffffffffffffffffffffffffffffffffffffff16815260200190815260200160002054611c8890919063ffffffff16565b600260008673ffffffffffffffffffffffffffffffffffffffff1673ffffffffffffffffffffffffffffffffffffffff16815260200190815260200160002060003373ffffffffffffffffffffffffffffffffffffffff1673ffffffffffffffffffffffffffffffffffffffff168152602001908152602001600020819055508273ffffffffffffffffffffffffffffffffffffffff168473ffffffffffffffffffffffffffffffffffffffff167fddf252ad1be2c89b69c2b068fc378daa952ba7f163c4a11628f55a4df523b3ef846040518082815260200191505060405180910390a3600190509392505050565b60003073ffffffffffffffffffffffffffffffffffffffff168473ffffffffffffffffffffffffffffffffffffffff1614151515610e4e57600080fd5b610e588484611512565b508373ffffffffffffffffffffffffffffffffffffffff16348360405180828051906020019080838360005b83811015610e9f578082015181840152602081019050610e84565b50505050905090810190601f168015610ecc5780820380516001836020036101000a031916815260200191505b5091505060006040518083038185875af1925050501515610eec57600080fd5b600190509392505050565b6000620f4240610f056113c3565b620f424060075460065402811515610f1957fe5b0402811515610f2457fe5b043073ffffffffffffffffffffffffffffffffffffffff1631039050600360009054906101000a900473ffffffffffffffffffffffffffffffffffffffff1673ffffffffffffffffffffffffffffffffffffffff166108fc829081150290604051600060405180830381858888f19350505050158015610fa8573d6000803e3d6000fd5b5050565b600360009054906101000a900473ffffffffffffffffffffffffffffffffffffffff1681565b600460009054906101000a900473ffffffffffffffffffffffffffffffffffffffff1681565b600080600260003373ffffffffffffffffffffffffffffffffffffffff1673ffffffffffffffffffffffffffffffffffffffff16815260200190815260200160002060008573ffffffffffffffffffffffffffffffffffffffff1673ffffffffffffffffffffffffffffffffffffffff16815260200190815260200160002054905080831115611109576000600260003373ffffffffffffffffffffffffffffffffffffffff1673ffffffffffffffffffffffffffffffffffffffff16815260200190815260200160002060008673ffffffffffffffffffffffffffffffffffffffff1673ffffffffffffffffffffffffffffffffffffffff1681526020019081526020016000208190555061119d565b61111c8382611c8890919063ffffffff16565b600260003373ffffffffffffffffffffffffffffffffffffffff1673ffffffffffffffffffffffffffffffffffffffff16815260200190815260200160002060008673ffffffffffffffffffffffffffffffffffffffff1673ffffffffffffffffffffffffffffffffffffffff168152602001908152602001600020819055505b8373ffffffffffffffffffffffffffffffffffffffff163373ffffffffffffffffffffffffffffffffffffffff167f8c5be1e5ebec7d5bd14f71427d1e84f3dd0314c0f7b2291e5b200ac8c7c3b925600260003373ffffffffffffffffffffffffffffffffffffffff1673ffffffffffffffffffffffffffffffffffffffff16815260200190815260200160002060008873ffffffffffffffffffffffffffffffffffffffff1673ffffffffffffffffffffffffffffffffffffffff168152602001908152602001600020546040518082815260200191505060405180910390a3600191505092915050565b60008060008373ffffffffffffffffffffffffffffffffffffffff1673ffffffffffffffffffffffffffffffffffffffff168152602001908152602001600020549050919050565b60006005544203905090565b60003073ffffffffffffffffffffffffffffffffffffffff168473ffffffffffffffffffffffffffffffffffffffff161415151561131a57600080fd5b61132484846119eb565b508373ffffffffffffffffffffffffffffffffffffffff16348360405180828051906020019080838360005b8381101561136b578082015181840152602081019050611350565b50505050905090810190601f1680156113985780820380516001836020036101000a031916815260200191505b5091505060006040518083038185875af19250505015156113b857600080fd5b600190509392505050565b6000806000600460009054906101000a900473ffffffffffffffffffffffffffffffffffffffff1673ffffffffffffffffffffffffffffffffffffffff166332833d51640e2c6b1f85640e2c6b1c0961141a6112d1565b60016040518563ffffffff167c0100000000000000000000000000000000000000000000000000000000028152600401808581526020018481526020018363ffffffff1663ffffffff1681526020018263ffffffff1681526020019450505050506040805180830381600087803b15801561149457600080fd5b505af11580156114a8573d6000803e3d6000fd5b505050506040513d60408110156114be57600080fd5b81019080805190602001909291908051906020019092919050505060ff16915091508060020a60085483028115156114f257fe5b049250505090565b60085481565b611508610ef7565b611510611cbd565b565b60008073ffffffffffffffffffffffffffffffffffffffff168373ffffffffffffffffffffffffffffffffffffffff161415151561154f57600080fd5b6000803373ffffffffffffffffffffffffffffffffffffffff1673ffffffffffffffffffffffffffffffffffffffff16815260200190815260200160002054821115151561159c57600080fd5b6115ed826000803373ffffffffffffffffffffffffffffffffffffffff1673ffffffffffffffffffffffffffffffffffffffff16815260200190815260200160002054611c8890919063ffffffff16565b6000803373ffffffffffffffffffffffffffffffffffffffff1673ffffffffffffffffffffffffffffffffffffffff16815260200190815260200160002081905550611680826000808673ffffffffffffffffffffffffffffffffffffffff1673ffffffffffffffffffffffffffffffffffffffff16815260200190815260200160002054611ca190919063ffffffff16565b6000808573ffffffffffffffffffffffffffffffffffffffff1673ffffffffffffffffffffffffffffffffffffffff168152602001908152602001600020819055508273ffffffffffffffffffffffffffffffffffffffff163373ffffffffffffffffffffffffffffffffffffffff167fddf252ad1be2c89b69c2b068fc378daa952ba7f163c4a11628f55a4df523b3ef846040518082815260200191505060405180910390a36001905092915050565b60003073ffffffffffffffffffffffffffffffffffffffff168473ffffffffffffffffffffffffffffffffffffffff161415151561176e57600080fd5b611779858585610a57565b508373ffffffffffffffffffffffffffffffffffffffff16348360405180828051906020019080838360005b838110156117c05780820151818401526020810190506117a5565b50505050905090810190601f1680156117ed5780820380516001836020036101000a031916815260200191505b5091505060006040518083038185875af192505050151561180d57600080fd5b60019050949350505050565b60003073ffffffffffffffffffffffffffffffffffffffff168473ffffffffffffffffffffffffffffffffffffffff161415151561185657600080fd5b611860848461095f565b508373ffffffffffffffffffffffffffffffffffffffff16348360405180828051906020019080838360005b838110156118a757808201518184015260208101905061188c565b50505050905090810190601f1680156118d45780820380516001836020036101000a031916815260200191505b5091505060006040518083038185875af19250505015156118f457600080fd5b600190509392505050565b60003073ffffffffffffffffffffffffffffffffffffffff168473ffffffffffffffffffffffffffffffffffffffff161415151561193c57600080fd5b6119468484610ff8565b508373ffffffffffffffffffffffffffffffffffffffff16348360405180828051906020019080838360005b8381101561198d578082015181840152602081019050611972565b50505050905090810190601f1680156119ba5780820380516001836020036101000a031916815260200191505b5091505060006040518083038185875af19250505015156119da57600080fd5b600190509392505050565b60055481565b6000611a7c82600260003373ffffffffffffffffffffffffffffffffffffffff1673ffffffffffffffffffffffffffffffffffffffff16815260200190815260200160002060008673ffffffffffffffffffffffffffffffffffffffff1673ffffffffffffffffffffffffffffffffffffffff16815260200190815260200160002054611ca190919063ffffffff16565b600260003373ffffffffffffffffffffffffffffffffffffffff1673ffffffffffffffffffffffffffffffffffffffff16815260200190815260200160002060008573ffffffffffffffffffffffffffffffffffffffff1673ffffffffffffffffffffffffffffffffffffffff168152602001908152602001600020819055508273ffffffffffffffffffffffffffffffffffffffff163373ffffffffffffffffffffffffffffffffffffffff167f8c5be1e5ebec7d5bd14f71427d1e84f3dd0314c0f7b2291e5b200ac8c7c3b925600260003373ffffffffffffffffffffffffffffffffffffffff1673ffffffffffffffffffffffffffffffffffffffff16815260200190815260200160002060008773ffffffffffffffffffffffffffffffffffffffff1673ffffffffffffffffffffffffffffffffffffffff168152602001908152602001600020546040518082815260200191505060405180910390a36001905092915050565b6000600260008473ffffffffffffffffffffffffffffffffffffffff1673ffffffffffffffffffffffffffffffffffffffff16815260200190815260200160002060008373ffffffffffffffffffffffffffffffffffffffff1673ffffffffffffffffffffffffffffffffffffffff16815260200190815260200160002054905092915050565b611c76610ef7565b611c7f81611e38565b50565b60075481565b6000828211151515611c9657fe5b818303905092915050565b60008183019050828110151515611cb457fe5b80905092915050565b6000600460009054906101000a900473ffffffffffffffffffffffffffffffffffffffff1673ffffffffffffffffffffffffffffffffffffffff166329a00e7c6006543073ffffffffffffffffffffffffffffffffffffffff1631611d206113c3565b346040518563ffffffff167c0100000000000000000000000000000000000000000000000000000000028152600401808581526020018481526020018363ffffffff1663ffffffff168152602001828152602001945050505050602060405180830381600087803b158015611d9457600080fd5b505af1158015611da8573d6000803e3d6000fd5b505050506040513d6020811015611dbe57600080fd5b8101908080519060200190929190505050905080600660008282540192505081905550806000803373ffffffffffffffffffffffffffffffffffffffff1673ffffffffffffffffffffffffffffffffffffffff16815260200190815260200160002060008282540192505081905550611e35612048565b50565b6000816000803373ffffffffffffffffffffffffffffffffffffffff1673ffffffffffffffffffffffffffffffffffffffff1681526020019081526020016000205410151515611e8757600080fd5b600460009054906101000a900473ffffffffffffffffffffffffffffffffffffffff1673ffffffffffffffffffffffffffffffffffffffff166349f9b0f76006543073ffffffffffffffffffffffffffffffffffffffff1631611ee86113c3565b866040518563ffffffff167c0100000000000000000000000000000000000000000000000000000000028152600401808581526020018481526020018363ffffffff1663ffffffff168152602001828152602001945050505050602060405180830381600087803b158015611f5c57600080fd5b505af1158015611f70573d6000803e3d6000fd5b505050506040513d6020811015611f8657600080fd5b8101908080519060200190929190505050905081600660008282540392505081905550816000803373ffffffffffffffffffffffffffffffffffffffff1673ffffffffffffffffffffffffffffffffffffffff168152602001908152602001600020600082825403925050819055503373ffffffffffffffffffffffffffffffffffffffff166108fc829081150290604051600060405180830381858888f1935050505015801561203b573d6000803e3d6000fd5b50612044612048565b5050565b6120506113c3565b6008546006543073ffffffffffffffffffffffffffffffffffffffff163181151561207757fe5b040281151561208257fe5b046007819055505600a165627a7a72305820606fa8c34cb85f6124ded84930746c41fe800e2a75aeb24cb45473d95c2cc85a00296080604052348015600f57600080fd5b50603280601d6000396000f30060806040520000a165627a7a723058207c06dfac2042ade0a18597706e8607e70da90b0bf5375bcda88fe85979730fbc002960806040526040805190810160405280600381526020017f302e330000000000000000000000000000000000000000000000000000000000815250600090805190602001906200005192919062000066565b503480156200005f57600080fd5b5062000115565b828054600181600116156101000203166002900490600052602060002090601f016020900481019282601f10620000a957805160ff1916838001178555620000da565b82800160010185558215620000da579182015b82811115620000d9578251825591602001919060010190620000bc565b5b509050620000e99190620000ed565b5090565b6200011291905b808211156200010e576000816000905550600101620000f4565b5090565b90565b6129a580620001256000396000f3006080604052600436106100c5576000357c0100000000000000000000000000000000000000000000000000000000900463ffffffff16806329576c82146100ca57806329a00e7c1461011857806332833d511461017d57806345b8bafc146101f557806349f9b0f71461023c5780634c3eea9e146102a157806354fd4d50146102e25780638a3c44a5146103725780639505086214610389578063a324cca0146103ca578063ce7845641461040b578063d05c78da14610452578063e6cb90131461049d575b600080fd5b3480156100d657600080fd5b5061010260048036038101908080359060200190929190803560ff1690602001909291905050506104e8565b6040518082815260200191505060405180910390f35b34801561012457600080fd5b506101676004803603810190808035906020019092919080359060200190929190803563ffffffff1690602001909291908035906020019092919050505061090c565b6040518082815260200191505060405180910390f35b34801561018957600080fd5b506101d26004803603810190808035906020019092919080359060200190929190803563ffffffff169060200190929190803563ffffffff1690602001909291905050506109eb565b604051808381526020018260ff1660ff1681526020019250505060405180910390f35b34801561020157600080fd5b5061022060048036038101908080359060200190929190505050610ae3565b604051808260ff1660ff16815260200191505060405180910390f35b34801561024857600080fd5b5061028b6004803603810190808035906020019092919080359060200190929190803563ffffffff16906020019092919080359060200190929190505050610b6f565b6040518082815260200191505060405180910390f35b3480156102ad57600080fd5b506102cc60048036038101908080359060200190929190505050610c73565b6040518082815260200191505060405180910390f35b3480156102ee57600080fd5b506102f7610da9565b6040518080602001828103825283818151815260200191508051906020019080838360005b8381101561033757808201518184015260208101905061031c565b50505050905090810190601f1680156103645780820380516001836020036101000a031916815260200191505b509250505060405180910390f35b34801561037e57600080fd5b50610387610e47565b005b34801561039557600080fd5b506103b460048036038101908080359060200190929190505050611cd9565b6040518082815260200191505060405180910390f35b3480156103d657600080fd5b506103f560048036038101908080359060200190929190505050612299565b6040518082815260200191505060405180910390f35b34801561041757600080fd5b5061043660048036038101908080359060200190929190505050612868565b604051808260ff1660ff16815260200191505060405180910390f35b34801561045e57600080fd5b506104876004803603810190808035906020019092919080359060200190929190505050612928565b6040518082815260200191505060405180910390f35b3480156104a957600080fd5b506104d2600480360381019080803590602001909291908035906020019092919050505061295b565b6040518082815260200191505060405180910390f35b6000806000849150600090508360ff168583029060020a900491506f03442c4e6074a82f1797f72ac00000008202810190508360ff168583029060020a900491506f0116b96f757c380fb287fd0e400000008202810190508360ff168583029060020a900491506e45ae5bdd5f0e03eca1ff43900000008202810190508360ff168583029060020a900491506e0defabf91302cd95b9ffda500000008202810190508360ff168583029060020a900491506e02529ca9832b22439efff9b80000008202810190508360ff168583029060020a900491506d54f1cf12bd04e516b6da880000008202810190508360ff168583029060020a900491506d0a9e39e257a09ca2d6db510000008202810190508360ff168583029060020a900491506d012e066e7b839fa050c3090000008202810190508360ff168583029060020a900491506c1e33d7d926c329a1ad1a8000008202810190508360ff168583029060020a900491506c02bee513bdb4a6b19b5f8000008202810190508360ff168583029060020a900491506b3a9316fa79b88eccf2a000008202810190508360ff168583029060020a900491506b048177ebe1fa8123752000008202810190508360ff168583029060020a900491506a5263fe90242dcbacf000008202810190508360ff168583029060020a900491506a057e22099c030d941000008202810190508360ff168583029060020a900491506957e22099c030d94100008202810190508360ff168583029060020a9004915069052b6b545699763100008202810190508360ff168583029060020a90049150684985f67696bf7480008202810190508360ff168583029060020a900491506803dea12ea99e4980008202810190508360ff168583029060020a900491506731880f2214b6e0008202810190508360ff168583029060020a9004915067025bcff56eb360008202810190508360ff168583029060020a90049150661b722e10ab10008202810190508360ff168583029060020a900491506601317c700770008202810190508360ff168583029060020a90049150650cba84aafa008202810190508360ff168583029060020a900491506482573a0a008202810190508360ff168583029060020a900491506405035ad9008202810190508360ff168583029060020a90049150632f881b008202810190508360ff168583029060020a900491506301b293408202810190508360ff168583029060020a90049150620efc408202810190508360ff168583029060020a90049150617fe08202810190508360ff168583029060020a900491506104208202810190508360ff168583029060020a9004915060218202810190508360ff168583029060020a9004915060018202810190508360ff1660019060020a02856f0688589cc0e9505e2f2fee5580000000838115156108ff57fe5b0401019250505092915050565b600080600080600080891180156109235750600088115b8015610935575060008763ffffffff16115b80156109505750620f424063ffffffff168763ffffffff1611155b151561095b57600080fd5b600086141561096d57600094506109df565b620f424063ffffffff168763ffffffff1614156109a0578761098f8a88612928565b81151561099857fe5b0494506109df565b6109aa868961295b565b91506109bb828989620f42406109eb565b80945081955050508260ff166109d18a86612928565b9060020a9004905088810394505b50505050949350505050565b6000806000806000807002000000000000000000000000000000008a101515610a1057fe5b886f800000000000000000000000000000008b02811515610a2d57fe5b04925070015bf0a8b1457695355fb8ac404e7a79e3831015610a5957610a5283612299565b9350610a65565b610a6283610c73565b93505b8663ffffffff168863ffffffff168502811515610a7e57fe5b049150700800000000000000000000000000000000821015610aae57610aa382611cd9565b607f95509550610ad6565b610ab782612868565b9050610ad081607f0360ff16839060020a9004826104e8565b81955095505b5050505094509492505050565b6000806000809150610100841015610b1a575b6001841115610b15576001849060020a90049350600182019150610af6565b610b65565b608090505b60008160ff161115610b64578060ff1660019060020a0284101515610b51578060ff16849060020a9004935080821791505b60018160ff169060020a90049050610b1f565b5b8192505050919050565b60008060008060008060008a118015610b885750600089115b8015610b9a575060008863ffffffff16115b8015610bb55750620f424063ffffffff168863ffffffff1611155b8015610bc15750898711155b1515610bcc57600080fd5b6000871415610bde5760009550610c66565b89871415610bee57889550610c66565b620f424063ffffffff168863ffffffff161415610c215789610c108a89612928565b811515610c1957fe5b049550610c66565b868a039250610c358a84620f42408b6109eb565b8095508196505050610c478986612928565b91508360ff16899060020a02905084818303811515610c6257fe5b0495505b5050505050949350505050565b6000806000806000925070010000000000000000000000000000000085101515610ce357610cbb6f8000000000000000000000000000000086811515610cb557fe5b04610ae3565b91508160ff16859060020a900494506f800000000000000000000000000000008260ff160292505b6f80000000000000000000000000000000851115610d7157607f90505b60008160ff161115610d70576f80000000000000000000000000000000858602811515610d2957fe5b04945070010000000000000000000000000000000085101515610d64576001859060020a900494506001810360ff1660019060020a02830192505b80600190039050610d00565b5b6f05b9de1d10bf4103d647b0955897ba806f03f80fe03f80fe03f80fe03f80fe03f88402811515610d9e57fe5b049350505050919050565b60008054600181600116156101000203166002900480601f016020809104026020016040519081016040528092919081815260200182805460018160011615610100020316600290048015610e3f5780601f10610e1457610100808354040283529160200191610e3f565b820191906000526020600020905b815481529060010190602001808311610e2257829003601f168201915b505050505081565b701c35fedd14ffffffffffffffffffffffff60016020608081101515610e6957fe5b0181905550701b0ce43b323fffffffffffffffffffffff60016021608081101515610e9057fe5b01819055507019f0028ec1ffffffffffffffffffffffff60016022608081101515610eb757fe5b01819055507018ded91f0e7fffffffffffffffffffffff60016023608081101515610ede57fe5b01819055507017d8ec7f0417ffffffffffffffffffffff60016024608081101515610f0557fe5b01819055507016ddc6556cdbffffffffffffffffffffff60016025608081101515610f2c57fe5b01819055507015ecf52776a1ffffffffffffffffffffff60016026608081101515610f5357fe5b01819055507015060c256cb2ffffffffffffffffffffff60016027608081101515610f7a57fe5b0181905550701428a2f98d72ffffffffffffffffffffff60016028608081101515610fa157fe5b01819055507013545598e5c23fffffffffffffffffffff60016029608081101515610fc857fe5b0181905550701288c4161ce1dfffffffffffffffffffff6001602a608081101515610fef57fe5b01819055507011c592761c666fffffffffffffffffffff6001602b60808110151561101657fe5b018190555070110a688680a757ffffffffffffffffffff6001602c60808110151561103d57fe5b0181905550701056f1b5bedf77ffffffffffffffffffff6001602d60808110151561106457fe5b0181905550700faadceceeff8bffffffffffffffffffff6001602e60808110151561108b57fe5b0181905550700f05dc6b27edadffffffffffffffffffff6001602f6080811015156110b257fe5b0181905550700e67a5a25da4107fffffffffffffffffff600160306080811015156110d957fe5b0181905550700dcff115b14eedffffffffffffffffffff6001603160808110151561110057fe5b0181905550700d3e7a392431239fffffffffffffffffff6001603260808110151561112757fe5b0181905550700cb2ff529eb71e4fffffffffffffffffff6001603360808110151561114e57fe5b0181905550700c2d415c3db974afffffffffffffffffff6001603460808110151561117557fe5b0181905550700bad03e7d883f69bffffffffffffffffff6001603560808110151561119c57fe5b0181905550700b320d03b2c343d5ffffffffffffffffff600160366080811015156111c357fe5b0181905550700abc25204e02828dffffffffffffffffff600160376080811015156111ea57fe5b0181905550700a4b16f74ee4bb207fffffffffffffffff6001603860808110151561121157fe5b01819055507009deaf736ac1f569ffffffffffffffffff6001603960808110151561123857fe5b0181905550700976bd9952c7aa957fffffffffffffffff6001603a60808110151561125f57fe5b01819055507009131271922eaa606fffffffffffffffff6001603b60808110151561128657fe5b01819055507008b380f3558668c46fffffffffffffffff6001603c6080811015156112ad57fe5b0181905550700857ddf0117efa215bffffffffffffffff6001603d6080811015156112d457fe5b01819055507007ffffffffffffffffffffffffffffffff6001603e6080811015156112fb57fe5b01819055507007abbf6f6abb9d087fffffffffffffffff6001603f60808110151561132257fe5b018190555070075af62cbac95f7dfa7fffffffffffffff6001604060808110151561134957fe5b018190555070070d7fb7452e187ac13fffffffffffffff6001604160808110151561137057fe5b01819055507006c3390ecc8af379295fffffffffffffff6001604260808110151561139757fe5b018190555070067c00a3b07ffc01fd6fffffffffffffff600160436080811015156113be57fe5b0181905550700637b647c39cbb9d3d27ffffffffffffff600160446080811015156113e557fe5b01819055507005f63b1fc104dbd39587ffffffffffffff6001604560808110151561140c57fe5b01819055507005b771955b36e12f7235ffffffffffffff6001604660808110151561143357fe5b018190555070057b3d49dda84556d6f6ffffffffffffff6001604760808110151561145a57fe5b018190555070054183095b2c8ececf30ffffffffffffff6001604860808110151561148157fe5b018190555070050a28be635ca2b888f77fffffffffffff600160496080811015156114a857fe5b01819055507004d5156639708c9db33c3fffffffffffff6001604a6080811015156114cf57fe5b01819055507004a23105873875bd52dfdfffffffffffff6001604b6080811015156114f657fe5b0181905550700471649d87199aa990756fffffffffffff6001604c60808110151561151d57fe5b01819055507004429a21a029d4c1457cfbffffffffffff6001604d60808110151561154457fe5b0181905550700415bc6d6fb7dd71af2cb3ffffffffffff6001604e60808110151561156b57fe5b01819055507003eab73b3bbfe282243ce1ffffffffffff6001604f60808110151561159257fe5b01819055507003c1771ac9fb6b4c18e229ffffffffffff600160506080811015156115b957fe5b0181905550700399e96897690418f785257fffffffffff600160516080811015156115e057fe5b0181905550700373fc456c53bb779bf0ea9fffffffffff6001605260808110151561160757fe5b018190555070034f9e8e490c48e67e6ab8bfffffffffff6001605360808110151561162e57fe5b018190555070032cbfd4a7adc790560b3337ffffffffff6001605460808110151561165557fe5b018190555070030b50570f6e5d2acca94613ffffffffff6001605560808110151561167c57fe5b01819055507002eb40f9f620fda6b56c2861ffffffffff600160566080811015156116a357fe5b01819055507002cc8340ecb0d0f520a6af58ffffffffff600160576080811015156116ca57fe5b01819055507002af09481380a0a35cf1ba02ffffffffff600160586080811015156116f157fe5b0181905550700292c5bdd3b92ec810287b1b3fffffffff6001605960808110151561171857fe5b0181905550700277abdcdab07d5a77ac6d6b9fffffffff6001605a60808110151561173f57fe5b018190555070025daf6654b1eaa55fd64df5efffffffff6001605b60808110151561176657fe5b0181905550700244c49c648baa98192dce88b7ffffffff6001605c60808110151561178d57fe5b018190555070022ce03cd5619a311b2471268bffffffff6001605d6080811015156117b457fe5b0181905550700215f77c045fbe885654a44a0fffffffff6001605e6080811015156117db57fe5b01819055507001ffffffffffffffffffffffffffffffff6001605f60808110151561180257fe5b01819055507001eaefdbdaaee7421fc4d3ede5ffffffff6001606060808110151561182957fe5b01819055507001d6bd8b2eb257df7e8ca57b09bfffffff6001606160808110151561185057fe5b01819055507001c35fedd14b861eb0443f7f133fffffff6001606260808110151561187757fe5b01819055507001b0ce43b322bcde4a56e8ada5afffffff6001606360808110151561189e57fe5b018190555070019f0028ec1fff007f5a195a39dfffffff600160646080811015156118c557fe5b018190555070018ded91f0e72ee74f49b15ba527ffffff600160656080811015156118ec57fe5b018190555070017d8ec7f04136f4e5615fd41a63ffffff6001606660808110151561191357fe5b018190555070016ddc6556cdb84bdc8d12d22e6fffffff6001606760808110151561193a57fe5b018190555070015ecf52776a1155b5bd8395814f7fffff6001606860808110151561196157fe5b018190555070015060c256cb23b3b3cc3754cf40ffffff6001606960808110151561198857fe5b01819055507001428a2f98d728ae223ddab715be3fffff6001606a6080811015156119af57fe5b018190555070013545598e5c23276ccf0ede68034fffff6001606b6080811015156119d657fe5b01819055507001288c4161ce1d6f54b7f61081194fffff6001606c6080811015156119fd57fe5b018190555070011c592761c666aa641d5a01a40f17ffff6001606d608081101515611a2457fe5b0181905550700110a688680a7530515f3e6e6cfdcdffff6001606e608081101515611a4b57fe5b01819055507001056f1b5bedf75c6bcb2ce8aed428ffff6001606f608081101515611a7257fe5b01819055506ffaadceceeff8a0890f3875f008277fff60016070608081101515611a9857fe5b01819055506ff05dc6b27edad306388a600f6ba0bfff60016071608081101515611abe57fe5b01819055506fe67a5a25da41063de1495d5b18cdbfff60016072608081101515611ae457fe5b01819055506fdcff115b14eedde6fc3aa5353f2e4fff60016073608081101515611b0a57fe5b01819055506fd3e7a3924312399f9aae2e0f868f8fff60016074608081101515611b3057fe5b01819055506fcb2ff529eb71e41582cccd5a1ee26fff60016075608081101515611b5657fe5b01819055506fc2d415c3db974ab32a51840c0b67edff60016076608081101515611b7c57fe5b01819055506fbad03e7d883f69ad5b0a186184e06bff60016077608081101515611ba257fe5b01819055506fb320d03b2c343d4829abd6075f0cc5ff60016078608081101515611bc857fe5b01819055506fabc25204e02828d73c6e80bcdb1a95bf60016079608081101515611bee57fe5b01819055506fa4b16f74ee4bb2040a1ec6c15fbbf2df6001607a608081101515611c1457fe5b01819055506f9deaf736ac1f569deb1b5ae3f36c130f6001607b608081101515611c3a57fe5b01819055506f976bd9952c7aa957f5937d790ef650376001607c608081101515611c6057fe5b01819055506f9131271922eaa6064b73a22d0bd4f2bf6001607d608081101515611c8657fe5b01819055506f8b380f3558668c46c91c49a2f8e967b96001607e608081101515611cac57fe5b01819055506f857ddf0117efa215952912839f6473e66001607f608081101515611cd257fe5b0181905550565b600080600080600092506f1000000000000000000000000000000085811515611cfe57fe5b0691508190506f80000000000000000000000000000000828202811515611d2157fe5b0490506710e1b3be415a00008102830192506f80000000000000000000000000000000828202811515611d5057fe5b0490506705a0913f6b1e00008102830192506f80000000000000000000000000000000828202811515611d7f57fe5b049050670168244fdac780008102830192506f80000000000000000000000000000000828202811515611dae57fe5b049050664807432bc180008102830192506f80000000000000000000000000000000828202811515611ddc57fe5b049050660c0135dca040008102830192506f80000000000000000000000000000000828202811515611e0a57fe5b0490506601b707b1cdc0008102830192506f80000000000000000000000000000000828202811515611e3857fe5b0490506536e0f639b8008102830192506f80000000000000000000000000000000828202811515611e6557fe5b049050650618fee9f8008102830192506f80000000000000000000000000000000828202811515611e9257fe5b049050649c197dcc008102830192506f80000000000000000000000000000000828202811515611ebe57fe5b049050640e30dce4008102830192506f80000000000000000000000000000000828202811515611eea57fe5b04905064012ebd13008102830192506f80000000000000000000000000000000828202811515611f1657fe5b0490506317499f008102830192506f80000000000000000000000000000000828202811515611f4157fe5b0490506301a9d4808102830192506f80000000000000000000000000000000828202811515611f6c57fe5b049050621c63808102830192506f80000000000000000000000000000000828202811515611f9657fe5b0490506201c6388102830192506f80000000000000000000000000000000828202811515611fc057fe5b049050611ab88102830192506f80000000000000000000000000000000828202811515611fe957fe5b04905061017c8102830192506f8000000000000000000000000000000082820281151561201257fe5b04905060148102830192506f8000000000000000000000000000000082820281151561203a57fe5b04905060018102830192506f80000000000000000000000000000000826721c3677c82b400008581151561206a57fe5b040101925060006f1000000000000000000000000000000086161415156120be5770018ebef9eac820ae8682b9793ac6d1e7767001c3d6a24ed82218787d624d3e5eba95f984028115156120ba57fe5b0492505b60006f20000000000000000000000000000000861614151561210d577001368b2fc6f9609fe7aceb46aa619baed470018ebef9eac820ae8682b9793ac6d1e778840281151561210957fe5b0492505b60006f40000000000000000000000000000000861614151561215b576fbc5ab1b16779be3575bd8f0520a9f21f7001368b2fc6f9609fe7aceb46aa619baed5840281151561215757fe5b0492505b60006f8000000000000000000000000000000086161415156121a8576f454aaa8efe072e7f6ddbab84b40a55c96fbc5ab1b16779be3575bd8f0520a9f21e84028115156121a457fe5b0492505b600070010000000000000000000000000000000086161415156121f6576f0960aadc109e7a3bf4578099615711ea6f454aaa8efe072e7f6ddbab84b40a55c584028115156121f257fe5b0492505b60007002000000000000000000000000000000008616141515612243576e2bf84208204f5977f9a8cf01fdce3d6f0960aadc109e7a3bf4578099615711d7840281151561223f57fe5b0492505b6000700400000000000000000000000000000000861614151561228e576d03c6ab775dd0b95b4cbee7e65d116e2bf84208204f5977f9a8cf01fdc307840281151561228a57fe5b0492505b829350505050919050565b60008060008060008093506fd3094c70f034de4b96ff7d5b6f99fcd886101515612303576f40000000000000000000000000000000840193506fd3094c70f034de4b96ff7d5b6f99fcd86f8000000000000000000000000000000087028115156122ff57fe5b0495505b6fa45af1e1f40c333b3de1db4dd55f29a786101515612362576f20000000000000000000000000000000840193506fa45af1e1f40c333b3de1db4dd55f29a76f80000000000000000000000000000000870281151561235e57fe5b0495505b6f910b022db7ae67ce76b441c27035c6a1861015156123c1576f10000000000000000000000000000000840193506f910b022db7ae67ce76b441c27035c6a16f8000000000000000000000000000000087028115156123bd57fe5b0495505b6f88415abbe9a76bead8d00cf112e4d4a886101515612420576f08000000000000000000000000000000840193506f88415abbe9a76bead8d00cf112e4d4a86f80000000000000000000000000000000870281151561241c57fe5b0495505b6f84102b00893f64c705e841d5d4064bd38610151561247f576f04000000000000000000000000000000840193506f84102b00893f64c705e841d5d4064bd36f80000000000000000000000000000000870281151561247b57fe5b0495505b6f8204055aaef1c8bd5c3259f4822735a2861015156124de576f02000000000000000000000000000000840193506f8204055aaef1c8bd5c3259f4822735a26f8000000000000000000000000000000087028115156124da57fe5b0495505b6f810100ab00222d861931c15e39b44e998610151561253d576f01000000000000000000000000000000840193506f810100ab00222d861931c15e39b44e996f80000000000000000000000000000000870281151561253957fe5b0495505b6f808040155aabbbe9451521693554f7338610151561259b576e800000000000000000000000000000840193506f808040155aabbbe9451521693554f7336f80000000000000000000000000000000870281151561259757fe5b0495505b6f80000000000000000000000000000000860392508291506f800000000000000000000000000000008384028115156125d057fe5b0490507001000000000000000000000000000000008370010000000000000000000000000000000003830281151561260457fe5b04840193506f8000000000000000000000000000000081830281151561262657fe5b049150700200000000000000000000000000000000836faaaaaaaaaaaaaaaaaaaaaaaaaaaaaaaa03830281151561265957fe5b04840193506f8000000000000000000000000000000081830281151561267b57fe5b049150700300000000000000000000000000000000836f999999999999999999999999999999990383028115156126ae57fe5b04840193506f800000000000000000000000000000008183028115156126d057fe5b049150700400000000000000000000000000000000836f9249249249249249249249249249249203830281151561270357fe5b04840193506f8000000000000000000000000000000081830281151561272557fe5b049150700500000000000000000000000000000000836f8e38e38e38e38e38e38e38e38e38e38e03830281151561275857fe5b04840193506f8000000000000000000000000000000081830281151561277a57fe5b049150700600000000000000000000000000000000836f8ba2e8ba2e8ba2e8ba2e8ba2e8ba2e8b0383028115156127ad57fe5b04840193506f800000000000000000000000000000008183028115156127cf57fe5b049150700700000000000000000000000000000000836f89d89d89d89d89d89d89d89d89d89d8903830281151561280257fe5b04840193506f8000000000000000000000000000000081830281151561282457fe5b049150700800000000000000000000000000000000836f8888888888888888888888888888888803830281151561285757fe5b048401935083945050505050919050565b60008060008060209250607f91505b8160ff166001840160ff1610156128c957600282840160ff1681151561289957fe5b0490508460018260ff166080811015156128af57fe5b01541015156128c0578092506128c4565b8091505b612877565b8460018360ff166080811015156128dc57fe5b01541015156128ed57819350612920565b8460018460ff1660808110151561290057fe5b015410151561291157829350612920565b6000151561291b57fe5b600093505b505050919050565b60008082840290506000841480612949575082848281151561294657fe5b04145b151561295157fe5b8091505092915050565b600080828401905083811015151561296f57fe5b80915050929150505600a165627a7a723058206d897baeb0e8ec04f4a0c4e360671bec23ae7b4afc77005663074c0eab26d9d50029",
  "source": "pragma solidity 0.4.24;\n\nimport \"zeppelin-solidity/contracts/token/ERC827/ERC827Token.sol\";\nimport \"./DevDao.sol\";\nimport \"./Bancor.sol\";\n\n\n//tokens and ether expressed in elementary particles unless specified otherwise\ncontract MirageToken is ERC827Token{\n\n  DevDao      public devDao;\n  Bancor      public bancor;\n  uint        public createdAt;\n  uint        public totalSupply;\n  uint        public lastSpotPrice_x_E6;\n  uint        public E6  = 1000000;\n  // uint        public E9  = 1000000000;\n  // uint        public E18 = 1000000000000000000;\n  // uint        public E26 = 100000000000000000000000000;\n\n\n  constructor() public {\n    createdAt = now; // or 1518567207 Feb 14 2018: Date of first meeting\n    lastSpotPrice_x_E6 = 1000000;\n    devDao = new DevDao();\n    bancor = new Bancor();\n  }\n\n\n  function updateEthReserves() public {\n    // 1.0000000146530353805^-47304000 is 60874760069/60874759177 ^ 47304000/1\n    // if(overfunded()){\n    uint excessReserves = address(this).balance - totalSupply * lastSpotPrice_x_E6 / 1000000 * reserveRatio_x_E6() / 1000000;\n    address(devDao).transfer(excessReserves);\n  }\n  // function updateDevTokens() public {\n  //       // }else{ //underfunded\n  //     // // note the difference found in price here might be due to the fact that\n  //     // // normally the money coming in is used to buy tokens *first* and then the\n  //     // // team funds are used to buy them second; Whereas here (underfunded case) the\n  //     // // team buys tokens, then the investors tokens are created.\n  //   // uint tokensToMint = totalSupply - address(this).balance * 1000000 * 1000000 / price_x_E6 / reserveRatio_x_E6;\n  //   // totalSupply += tokensToMint;\n  //   // balances[devDao] += tokensToMint;\n  //   // }\n  // }\n  function buy() public payable {\n    updateEthReserves();\n    _buy();\n  }\n  function sell(uint amount) public {\n    updateEthReserves();\n    _sell(amount);\n  }\n\n  function _buy() private {\n    // require(totalSupply + msg.value >= totalSupply) // seems unnecessary\n    //does this fail elegantly with sending wei and minting coins (4 cases)\n    // uint tokensBought = msg.value / buyPriceTimesOneBillion(msg.value) / 1000000000;\n    uint tokensIssued = bancor.calculatePurchaseReturn(totalSupply, address(this).balance, uint32(reserveRatio_x_E6()), msg.value);\n    totalSupply += tokensIssued;\n    balances[msg.sender] += tokensIssued;\n    _updateSpotPrice();\n  }\n\n  function _sell(uint tokensSold) private {\n    require(balances[msg.sender] >= tokensSold);\n    uint weiRewarded = bancor.calculateSaleReturn(totalSupply, address(this).balance, uint32(reserveRatio_x_E6()), tokensSold);\n\n    totalSupply -= tokensSold;\n    balances[msg.sender] -= tokensSold;\n    msg.sender.transfer(weiRewarded);\n    _updateSpotPrice();\n  }\n\n  function _updateSpotPrice() private {\n    lastSpotPrice_x_E6 = address(this).balance / totalSupply * E6 / reserveRatio_x_E6();\n  }\n\n  // = H3*((1+F4/E4)^(B4)-1)\n  // = \n  // do this from directions - and logically check later\n  //low balance=E1 weiPaym=E26  1 + E26 => significant raise\n  //high balcnce=E26 weiPaym=E1: 1 + 1/E26 => should still raise price slightly\n  // function tokensToIssue(uint weiPayment) view public returns(uint){\n  //   uint term1_x_E26 = E26 + E26 * weiPayment / address(this).balance;\n  //   //could be 1 - E52\n  //   uint term2_x_E6  = 5; //bancor.power(E18, term1_x_E26, now - createdAt , 6); //check all this shit\n  //   // totalSupply * finish this line!!!\n  //   return 5; //stub stubly\n  // }\n\n  // function buyPrice_x_E6(uint weiAmount) view public returns(uint){\n  //   return 101; //stubbed\n  // }\n\n  // function sellPrice_x_E6(uint tokenAmount) view public returns(uint){\n  //   return 99; //stubbed\n  // }\n\n  function timeSinceGenesis() view public returns(uint32){\n    return uint32(now - createdAt); //do we need the wrapper <--\n  }\n\n  // function priceToBuy_x_E6(uint ETH) view public returns(uint){\n  //   return address(this).balance / totalSupply * E6 / reserveRatio_x_E6();\n  // }\n  // function priceToSell_x_E6(uint tokens) view public returns(uint){\n  //   return address(this).balance / totalSupply * E6 / reserveRatio_x_E6();\n  // }\n\n  function reserveRatio_x_E6() view public returns(uint){\n    // find a way to cache this better. currently 3 calls in each buy() call\n    // updates are only 5000 gas, seems easy enough? \"lastreserveRatio_x_E6\" so \n    // people dont try to read is as current.\n    (uint256 estimate, uint256 precision) = bancor.power(60874760069, 60874759177, timeSinceGenesis(), 1);\n    return estimate * E6 / 2**precision; //shouldnt overflow...\n  }\n\n  // function overfunded() view public returns(bool){\n  //   //more than target at current time\n  //   return true; // stub\n  // }\n// 1.0000000146530353805^-47304000\n  // // ex: 1000000, 68245410, 47304000, 6\n  // function fracExp(uint k, uint q, uint n, uint p) pure public returns (uint) {\n  //   uint s = 0;\n  //   uint N = 1;\n  //   uint B = 1;\n  //   for (uint i = 0; i < p; ++i){\n  //     s += k * N / B / (q**i);\n  //     N  = N * (n-i);\n  //     B  = B * (i+1);\n  //   }\n  //   return k * k / s;\n  // }\n}\n\n\n\n\n\n\n\n\n",
  "sourcePath": "/Users/zacharymitton/Dropbox/zac_mitton/dev/ethereum/mirage/contracts/MirageToken.sol",
  "compiler": {
    "name": "solc",
    "version": "0.4.24+commit.e67f0147.Emscripten.clang"
  },
  "schemaVersion": "2.0.0",
  "updatedAt": "2018-06-20T18:48:28.268Z"
}