{
  "contractName": "MirageToken",
  "abi": [
    {
      "constant": false,
      "inputs": [
        {
          "name": "_spender",
          "type": "address"
        },
        {
          "name": "_value",
          "type": "uint256"
        }
      ],
      "name": "approve",
      "outputs": [
        {
          "name": "",
          "type": "bool"
        }
      ],
      "payable": false,
      "stateMutability": "nonpayable",
      "type": "function"
    },
    {
      "constant": true,
      "inputs": [],
      "name": "E9",
      "outputs": [
        {
          "name": "",
          "type": "uint256"
        }
      ],
      "payable": false,
      "stateMutability": "view",
      "type": "function"
    },
    {
      "constant": true,
      "inputs": [],
      "name": "totalSupply",
      "outputs": [
        {
          "name": "",
          "type": "uint256"
        }
      ],
      "payable": false,
      "stateMutability": "view",
      "type": "function"
    },
    {
      "constant": false,
      "inputs": [
        {
          "name": "_from",
          "type": "address"
        },
        {
          "name": "_to",
          "type": "address"
        },
        {
          "name": "_value",
          "type": "uint256"
        }
      ],
      "name": "transferFrom",
      "outputs": [
        {
          "name": "",
          "type": "bool"
        }
      ],
      "payable": false,
      "stateMutability": "nonpayable",
      "type": "function"
    },
    {
      "constant": false,
      "inputs": [
        {
          "name": "_to",
          "type": "address"
        },
        {
          "name": "_value",
          "type": "uint256"
        },
        {
          "name": "_data",
          "type": "bytes"
        }
      ],
      "name": "transferAndCall",
      "outputs": [
        {
          "name": "",
          "type": "bool"
        }
      ],
      "payable": true,
      "stateMutability": "payable",
      "type": "function"
    },
    {
      "constant": true,
      "inputs": [],
      "name": "devDao",
      "outputs": [
        {
          "name": "",
          "type": "address"
        }
      ],
      "payable": false,
      "stateMutability": "view",
      "type": "function"
    },
    {
      "constant": false,
      "inputs": [
        {
          "name": "_spender",
          "type": "address"
        },
        {
          "name": "_subtractedValue",
          "type": "uint256"
        }
      ],
      "name": "decreaseApproval",
      "outputs": [
        {
          "name": "",
          "type": "bool"
        }
      ],
      "payable": false,
      "stateMutability": "nonpayable",
      "type": "function"
    },
    {
      "constant": true,
      "inputs": [],
      "name": "E18",
      "outputs": [
        {
          "name": "",
          "type": "uint256"
        }
      ],
      "payable": false,
      "stateMutability": "view",
      "type": "function"
    },
    {
      "constant": true,
      "inputs": [
        {
          "name": "_owner",
          "type": "address"
        }
      ],
      "name": "balanceOf",
      "outputs": [
        {
          "name": "",
          "type": "uint256"
        }
      ],
      "payable": false,
      "stateMutability": "view",
      "type": "function"
    },
    {
      "constant": false,
      "inputs": [
        {
          "name": "_spender",
          "type": "address"
        },
        {
          "name": "_addedValue",
          "type": "uint256"
        },
        {
          "name": "_data",
          "type": "bytes"
        }
      ],
      "name": "increaseApprovalAndCall",
      "outputs": [
        {
          "name": "",
          "type": "bool"
        }
      ],
      "payable": true,
      "stateMutability": "payable",
      "type": "function"
    },
    {
      "constant": true,
      "inputs": [],
      "name": "E6",
      "outputs": [
        {
          "name": "",
          "type": "uint256"
        }
      ],
      "payable": false,
      "stateMutability": "view",
      "type": "function"
    },
    {
      "constant": false,
      "inputs": [
        {
          "name": "_to",
          "type": "address"
        },
        {
          "name": "_value",
          "type": "uint256"
        }
      ],
      "name": "transfer",
      "outputs": [
        {
          "name": "",
          "type": "bool"
        }
      ],
      "payable": false,
      "stateMutability": "nonpayable",
      "type": "function"
    },
    {
      "constant": false,
      "inputs": [
        {
          "name": "_from",
          "type": "address"
        },
        {
          "name": "_to",
          "type": "address"
        },
        {
          "name": "_value",
          "type": "uint256"
        },
        {
          "name": "_data",
          "type": "bytes"
        }
      ],
      "name": "transferFromAndCall",
      "outputs": [
        {
          "name": "",
          "type": "bool"
        }
      ],
      "payable": true,
      "stateMutability": "payable",
      "type": "function"
    },
    {
      "constant": false,
      "inputs": [
        {
          "name": "_spender",
          "type": "address"
        },
        {
          "name": "_value",
          "type": "uint256"
        },
        {
          "name": "_data",
          "type": "bytes"
        }
      ],
      "name": "approveAndCall",
      "outputs": [
        {
          "name": "",
          "type": "bool"
        }
      ],
      "payable": true,
      "stateMutability": "payable",
      "type": "function"
    },
    {
      "constant": false,
      "inputs": [
        {
          "name": "_spender",
          "type": "address"
        },
        {
          "name": "_subtractedValue",
          "type": "uint256"
        },
        {
          "name": "_data",
          "type": "bytes"
        }
      ],
      "name": "decreaseApprovalAndCall",
      "outputs": [
        {
          "name": "",
          "type": "bool"
        }
      ],
      "payable": true,
      "stateMutability": "payable",
      "type": "function"
    },
    {
      "constant": true,
      "inputs": [],
      "name": "createdAt",
      "outputs": [
        {
          "name": "",
          "type": "uint256"
        }
      ],
      "payable": false,
      "stateMutability": "view",
      "type": "function"
    },
    {
      "constant": true,
      "inputs": [],
      "name": "E26",
      "outputs": [
        {
          "name": "",
          "type": "uint256"
        }
      ],
      "payable": false,
      "stateMutability": "view",
      "type": "function"
    },
    {
      "constant": false,
      "inputs": [
        {
          "name": "_spender",
          "type": "address"
        },
        {
          "name": "_addedValue",
          "type": "uint256"
        }
      ],
      "name": "increaseApproval",
      "outputs": [
        {
          "name": "",
          "type": "bool"
        }
      ],
      "payable": false,
      "stateMutability": "nonpayable",
      "type": "function"
    },
    {
      "constant": true,
      "inputs": [
        {
          "name": "_owner",
          "type": "address"
        },
        {
          "name": "_spender",
          "type": "address"
        }
      ],
      "name": "allowance",
      "outputs": [
        {
          "name": "",
          "type": "uint256"
        }
      ],
      "payable": false,
      "stateMutability": "view",
      "type": "function"
    },
    {
      "constant": true,
      "inputs": [],
      "name": "lastPrice_x_E6",
      "outputs": [
        {
          "name": "",
          "type": "uint256"
        }
      ],
      "payable": false,
      "stateMutability": "view",
      "type": "function"
    },
    {
      "inputs": [],
      "payable": false,
      "stateMutability": "nonpayable",
      "type": "constructor"
    },
    {
      "anonymous": false,
      "inputs": [
        {
          "indexed": true,
          "name": "owner",
          "type": "address"
        },
        {
          "indexed": true,
          "name": "spender",
          "type": "address"
        },
        {
          "indexed": false,
          "name": "value",
          "type": "uint256"
        }
      ],
      "name": "Approval",
      "type": "event"
    },
    {
      "anonymous": false,
      "inputs": [
        {
          "indexed": true,
          "name": "from",
          "type": "address"
        },
        {
          "indexed": true,
          "name": "to",
          "type": "address"
        },
        {
          "indexed": false,
          "name": "value",
          "type": "uint256"
        }
      ],
      "name": "Transfer",
      "type": "event"
    },
    {
      "constant": false,
      "inputs": [],
      "name": "skim",
      "outputs": [],
      "payable": false,
      "stateMutability": "nonpayable",
      "type": "function"
    },
    {
      "constant": false,
      "inputs": [],
      "name": "buy",
      "outputs": [],
      "payable": true,
      "stateMutability": "payable",
      "type": "function"
    },
    {
      "constant": false,
      "inputs": [
        {
          "name": "amount",
          "type": "uint256"
        }
      ],
      "name": "sell",
      "outputs": [],
      "payable": false,
      "stateMutability": "nonpayable",
      "type": "function"
    },
    {
      "constant": true,
      "inputs": [
        {
          "name": "weiPayment",
          "type": "uint256"
        }
      ],
      "name": "tokensToIssue",
      "outputs": [
        {
          "name": "",
          "type": "uint256"
        }
      ],
      "payable": false,
      "stateMutability": "view",
      "type": "function"
    },
    {
      "constant": true,
      "inputs": [
        {
          "name": "tokenAmount",
          "type": "uint256"
        }
      ],
      "name": "sellPrice_x_E6",
      "outputs": [
        {
          "name": "",
          "type": "uint256"
        }
      ],
      "payable": false,
      "stateMutability": "view",
      "type": "function"
    },
    {
      "constant": true,
      "inputs": [],
      "name": "timeSinceGenesis",
      "outputs": [
        {
          "name": "",
          "type": "uint256"
        }
      ],
      "payable": false,
      "stateMutability": "view",
      "type": "function"
    },
    {
      "constant": true,
      "inputs": [],
      "name": "overfunded",
      "outputs": [
        {
          "name": "",
          "type": "bool"
        }
      ],
      "payable": false,
      "stateMutability": "view",
      "type": "function"
    },
    {
      "constant": true,
      "inputs": [
        {
          "name": "k",
          "type": "uint256"
        },
        {
          "name": "q",
          "type": "uint256"
        },
        {
          "name": "n",
          "type": "uint256"
        },
        {
          "name": "p",
          "type": "uint256"
        }
      ],
      "name": "fracExp",
      "outputs": [
        {
          "name": "",
          "type": "uint256"
        }
      ],
      "payable": false,
      "stateMutability": "pure",
      "type": "function"
    }
  ],
  "bytecode": "0x6080604052633b9aca00600755670de0b6b3a76400006008556a52b7d2dcc80cd2e400000060095534801561003357600080fd5b5042600481905550620f424060068190555061004d6100af565b604051809103906000f080158015610069573d6000803e3d6000fd5b50600360006101000a81548173ffffffffffffffffffffffffffffffffffffffff021916908373ffffffffffffffffffffffffffffffffffffffff1602179055506100bf565b604051604f806200210483390190565b61203580620000cf6000396000f30060806040526004361061016a576000357c0100000000000000000000000000000000000000000000000000000000900463ffffffff168063095ea7b31461016f5780630cba69cb146101d457806318160ddd146101ff5780631dd19cb41461022a57806323b872dd146102415780634000aea0146102c65780635f4f3c751461036457806366188463146103bb57806366d598f01461042057806370a082311461044b57806384e7a6a4146104a257806390db623f146104cd5780639c09d03d1461056b5780639ce22bbb146105ac578063a6f2ae3a146105d7578063a9059cbb146105e1578063c1d34b8914610646578063cae9ca5114610704578063cb3993be146107a2578063cf09e0d014610840578063d27450641461086b578063d6db85af14610896578063d73dd623146108f5578063dd62ed3e1461095a578063e4849b32146109d1578063eb77dae4146109fe578063edd5268514610a3f578063fe9fbc8d14610a6a575b600080fd5b34801561017b57600080fd5b506101ba600480360381019080803573ffffffffffffffffffffffffffffffffffffffff16906020019092919080359060200190929190505050610a99565b604051808215151515815260200191505060405180910390f35b3480156101e057600080fd5b506101e9610b8b565b6040518082815260200191505060405180910390f35b34801561020b57600080fd5b50610214610b91565b6040518082815260200191505060405180910390f35b34801561023657600080fd5b5061023f610b97565b005b34801561024d57600080fd5b506102ac600480360381019080803573ffffffffffffffffffffffffffffffffffffffff169060200190929190803573ffffffffffffffffffffffffffffffffffffffff16906020019092919080359060200190929190505050610d35565b604051808215151515815260200191505060405180910390f35b61034a600480360381019080803573ffffffffffffffffffffffffffffffffffffffff16906020019092919080359060200190929190803590602001908201803590602001908080601f01602080910402602001604051908101604052809392919081815260200183838082843782019150505050505091929192905050506110ef565b604051808215151515815260200191505060405180910390f35b34801561037057600080fd5b506103796111d5565b604051808273ffffffffffffffffffffffffffffffffffffffff1673ffffffffffffffffffffffffffffffffffffffff16815260200191505060405180910390f35b3480156103c757600080fd5b50610406600480360381019080803573ffffffffffffffffffffffffffffffffffffffff169060200190929190803590602001909291905050506111fb565b604051808215151515815260200191505060405180910390f35b34801561042c57600080fd5b5061043561148c565b6040518082815260200191505060405180910390f35b34801561045757600080fd5b5061048c600480360381019080803573ffffffffffffffffffffffffffffffffffffffff169060200190929190505050611492565b6040518082815260200191505060405180910390f35b3480156104ae57600080fd5b506104b76114da565b6040518082815260200191505060405180910390f35b610551600480360381019080803573ffffffffffffffffffffffffffffffffffffffff16906020019092919080359060200190929190803590602001908201803590602001908080601f01602080910402602001604051908101604052809392919081815260200183838082843782019150505050505091929192905050506114e6565b604051808215151515815260200191505060405180910390f35b34801561057757600080fd5b50610596600480360381019080803590602001909291905050506115cc565b6040518082815260200191505060405180910390f35b3480156105b857600080fd5b506105c161161e565b6040518082815260200191505060405180910390f35b6105df611625565b005b3480156105ed57600080fd5b5061062c600480360381019080803573ffffffffffffffffffffffffffffffffffffffff16906020019092919080359060200190929190505050611637565b604051808215151515815260200191505060405180910390f35b6106ea600480360381019080803573ffffffffffffffffffffffffffffffffffffffff169060200190929190803573ffffffffffffffffffffffffffffffffffffffff16906020019092919080359060200190929190803590602001908201803590602001908080601f0160208091040260200160405190810160405280939291908181526020018383808284378201915050505050509192919290505050611856565b604051808215151515815260200191505060405180910390f35b610788600480360381019080803573ffffffffffffffffffffffffffffffffffffffff16906020019092919080359060200190929190803590602001908201803590602001908080601f016020809104026020016040519081016040528093929190818152602001838380828437820191505050505050919291929050505061193e565b604051808215151515815260200191505060405180910390f35b610826600480360381019080803573ffffffffffffffffffffffffffffffffffffffff16906020019092919080359060200190929190803590602001908201803590602001908080601f0160208091040260200160405190810160405280939291908181526020018383808284378201915050505050509192919290505050611a24565b604051808215151515815260200191505060405180910390f35b34801561084c57600080fd5b50610855611b0a565b6040518082815260200191505060405180910390f35b34801561087757600080fd5b50610880611b10565b6040518082815260200191505060405180910390f35b3480156108a257600080fd5b506108df60048036038101908080359060200190929190803590602001909291908035906020019092919080359060200190929190505050611b16565b6040518082815260200191505060405180910390f35b34801561090157600080fd5b50610940600480360381019080803573ffffffffffffffffffffffffffffffffffffffff16906020019092919080359060200190929190505050611b8b565b604051808215151515815260200191505060405180910390f35b34801561096657600080fd5b506109bb600480360381019080803573ffffffffffffffffffffffffffffffffffffffff169060200190929190803573ffffffffffffffffffffffffffffffffffffffff169060200190929190505050611d87565b6040518082815260200191505060405180910390f35b3480156109dd57600080fd5b506109fc60048036038101908080359060200190929190505050611e0e565b005b348015610a0a57600080fd5b50610a2960048036038101908080359060200190929190505050611e22565b6040518082815260200191505060405180910390f35b348015610a4b57600080fd5b50610a54611e2d565b6040518082815260200191505060405180910390f35b348015610a7657600080fd5b50610a7f611e33565b604051808215151515815260200191505060405180910390f35b600081600260003373ffffffffffffffffffffffffffffffffffffffff1673ffffffffffffffffffffffffffffffffffffffff16815260200190815260200160002060008573ffffffffffffffffffffffffffffffffffffffff1673ffffffffffffffffffffffffffffffffffffffff168152602001908152602001600020819055508273ffffffffffffffffffffffffffffffffffffffff163373ffffffffffffffffffffffffffffffffffffffff167f8c5be1e5ebec7d5bd14f71427d1e84f3dd0314c0f7b2291e5b200ac8c7c3b925846040518082815260200191505060405180910390a36001905092915050565b60075481565b60055481565b6000806000610bb7620f424063041157a2610bb06114da565b6006611b16565b9250610bc1611e33565b15610c7457620f424083620f424060065460055402811515610bdf57fe5b0402811515610bea57fe5b043073ffffffffffffffffffffffffffffffffffffffff1631039150600360009054906101000a900473ffffffffffffffffffffffffffffffffffffffff1673ffffffffffffffffffffffffffffffffffffffff166108fc839081150290604051600060405180830381858888f19350505050158015610c6e573d6000803e3d6000fd5b50610d30565b82600654620f4240803073ffffffffffffffffffffffffffffffffffffffff16310202811515610ca057fe5b04811515610caa57fe5b046005540390508060056000828254019250508190555080600080600360009054906101000a900473ffffffffffffffffffffffffffffffffffffffff1673ffffffffffffffffffffffffffffffffffffffff1673ffffffffffffffffffffffffffffffffffffffff168152602001908152602001600020600082825401925050819055505b505050565b60008073ffffffffffffffffffffffffffffffffffffffff168373ffffffffffffffffffffffffffffffffffffffff1614151515610d7257600080fd5b6000808573ffffffffffffffffffffffffffffffffffffffff1673ffffffffffffffffffffffffffffffffffffffff168152602001908152602001600020548211151515610dbf57600080fd5b600260008573ffffffffffffffffffffffffffffffffffffffff1673ffffffffffffffffffffffffffffffffffffffff16815260200190815260200160002060003373ffffffffffffffffffffffffffffffffffffffff1673ffffffffffffffffffffffffffffffffffffffff168152602001908152602001600020548211151515610e4a57600080fd5b610e9b826000808773ffffffffffffffffffffffffffffffffffffffff1673ffffffffffffffffffffffffffffffffffffffff16815260200190815260200160002054611e5790919063ffffffff16565b6000808673ffffffffffffffffffffffffffffffffffffffff1673ffffffffffffffffffffffffffffffffffffffff16815260200190815260200160002081905550610f2e826000808673ffffffffffffffffffffffffffffffffffffffff1673ffffffffffffffffffffffffffffffffffffffff16815260200190815260200160002054611e7090919063ffffffff16565b6000808573ffffffffffffffffffffffffffffffffffffffff1673ffffffffffffffffffffffffffffffffffffffff16815260200190815260200160002081905550610fff82600260008773ffffffffffffffffffffffffffffffffffffffff1673ffffffffffffffffffffffffffffffffffffffff16815260200190815260200160002060003373ffffffffffffffffffffffffffffffffffffffff1673ffffffffffffffffffffffffffffffffffffffff16815260200190815260200160002054611e5790919063ffffffff16565b600260008673ffffffffffffffffffffffffffffffffffffffff1673ffffffffffffffffffffffffffffffffffffffff16815260200190815260200160002060003373ffffffffffffffffffffffffffffffffffffffff1673ffffffffffffffffffffffffffffffffffffffff168152602001908152602001600020819055508273ffffffffffffffffffffffffffffffffffffffff168473ffffffffffffffffffffffffffffffffffffffff167fddf252ad1be2c89b69c2b068fc378daa952ba7f163c4a11628f55a4df523b3ef846040518082815260200191505060405180910390a3600190509392505050565b60003073ffffffffffffffffffffffffffffffffffffffff168473ffffffffffffffffffffffffffffffffffffffff161415151561112c57600080fd5b6111368484611637565b508373ffffffffffffffffffffffffffffffffffffffff16348360405180828051906020019080838360005b8381101561117d578082015181840152602081019050611162565b50505050905090810190601f1680156111aa5780820380516001836020036101000a031916815260200191505b5091505060006040518083038185875af19250505015156111ca57600080fd5b600190509392505050565b600360009054906101000a900473ffffffffffffffffffffffffffffffffffffffff1681565b600080600260003373ffffffffffffffffffffffffffffffffffffffff1673ffffffffffffffffffffffffffffffffffffffff16815260200190815260200160002060008573ffffffffffffffffffffffffffffffffffffffff1673ffffffffffffffffffffffffffffffffffffffff1681526020019081526020016000205490508083111561130c576000600260003373ffffffffffffffffffffffffffffffffffffffff1673ffffffffffffffffffffffffffffffffffffffff16815260200190815260200160002060008673ffffffffffffffffffffffffffffffffffffffff1673ffffffffffffffffffffffffffffffffffffffff168152602001908152602001600020819055506113a0565b61131f8382611e5790919063ffffffff16565b600260003373ffffffffffffffffffffffffffffffffffffffff1673ffffffffffffffffffffffffffffffffffffffff16815260200190815260200160002060008673ffffffffffffffffffffffffffffffffffffffff1673ffffffffffffffffffffffffffffffffffffffff168152602001908152602001600020819055505b8373ffffffffffffffffffffffffffffffffffffffff163373ffffffffffffffffffffffffffffffffffffffff167f8c5be1e5ebec7d5bd14f71427d1e84f3dd0314c0f7b2291e5b200ac8c7c3b925600260003373ffffffffffffffffffffffffffffffffffffffff1673ffffffffffffffffffffffffffffffffffffffff16815260200190815260200160002060008873ffffffffffffffffffffffffffffffffffffffff1673ffffffffffffffffffffffffffffffffffffffff168152602001908152602001600020546040518082815260200191505060405180910390a3600191505092915050565b60085481565b60008060008373ffffffffffffffffffffffffffffffffffffffff1673ffffffffffffffffffffffffffffffffffffffff168152602001908152602001600020549050919050565b60006004544203905090565b60003073ffffffffffffffffffffffffffffffffffffffff168473ffffffffffffffffffffffffffffffffffffffff161415151561152357600080fd5b61152d8484611b8b565b508373ffffffffffffffffffffffffffffffffffffffff16348360405180828051906020019080838360005b83811015611574578082015181840152602081019050611559565b50505050905090810190601f1680156115a15780820380516001836020036101000a031916815260200191505b5091505060006040518083038185875af19250505015156115c157600080fd5b600190509392505050565b60008060003073ffffffffffffffffffffffffffffffffffffffff163184600954028115156115f757fe5b046009540191506116116008548360045442036006611b16565b9050600592505050919050565b620f424081565b61162d610b97565b611635611e8c565b565b60008073ffffffffffffffffffffffffffffffffffffffff168373ffffffffffffffffffffffffffffffffffffffff161415151561167457600080fd5b6000803373ffffffffffffffffffffffffffffffffffffffff1673ffffffffffffffffffffffffffffffffffffffff1681526020019081526020016000205482111515156116c157600080fd5b611712826000803373ffffffffffffffffffffffffffffffffffffffff1673ffffffffffffffffffffffffffffffffffffffff16815260200190815260200160002054611e5790919063ffffffff16565b6000803373ffffffffffffffffffffffffffffffffffffffff1673ffffffffffffffffffffffffffffffffffffffff168152602001908152602001600020819055506117a5826000808673ffffffffffffffffffffffffffffffffffffffff1673ffffffffffffffffffffffffffffffffffffffff16815260200190815260200160002054611e7090919063ffffffff16565b6000808573ffffffffffffffffffffffffffffffffffffffff1673ffffffffffffffffffffffffffffffffffffffff168152602001908152602001600020819055508273ffffffffffffffffffffffffffffffffffffffff163373ffffffffffffffffffffffffffffffffffffffff167fddf252ad1be2c89b69c2b068fc378daa952ba7f163c4a11628f55a4df523b3ef846040518082815260200191505060405180910390a36001905092915050565b60003073ffffffffffffffffffffffffffffffffffffffff168473ffffffffffffffffffffffffffffffffffffffff161415151561189357600080fd5b61189e858585610d35565b508373ffffffffffffffffffffffffffffffffffffffff16348360405180828051906020019080838360005b838110156118e55780820151818401526020810190506118ca565b50505050905090810190601f1680156119125780820380516001836020036101000a031916815260200191505b5091505060006040518083038185875af192505050151561193257600080fd5b60019050949350505050565b60003073ffffffffffffffffffffffffffffffffffffffff168473ffffffffffffffffffffffffffffffffffffffff161415151561197b57600080fd5b6119858484610a99565b508373ffffffffffffffffffffffffffffffffffffffff16348360405180828051906020019080838360005b838110156119cc5780820151818401526020810190506119b1565b50505050905090810190601f1680156119f95780820380516001836020036101000a031916815260200191505b5091505060006040518083038185875af1925050501515611a1957600080fd5b600190509392505050565b60003073ffffffffffffffffffffffffffffffffffffffff168473ffffffffffffffffffffffffffffffffffffffff1614151515611a6157600080fd5b611a6b84846111fb565b508373ffffffffffffffffffffffffffffffffffffffff16348360405180828051906020019080838360005b83811015611ab2578082015181840152602081019050611a97565b50505050905090810190601f168015611adf5780820380516001836020036101000a031916815260200191505b5091505060006040518083038185875af1925050501515611aff57600080fd5b600190509392505050565b60045481565b60095481565b60008060008060008093506001925060019150600090505b85811015611b6f5780880a82848b02811515611b4657fe5b04811515611b5057fe5b0484019350808703830292506001810182029150806001019050611b2e565b83898a02811515611b7c57fe5b04945050505050949350505050565b6000611c1c82600260003373ffffffffffffffffffffffffffffffffffffffff1673ffffffffffffffffffffffffffffffffffffffff16815260200190815260200160002060008673ffffffffffffffffffffffffffffffffffffffff1673ffffffffffffffffffffffffffffffffffffffff16815260200190815260200160002054611e7090919063ffffffff16565b600260003373ffffffffffffffffffffffffffffffffffffffff1673ffffffffffffffffffffffffffffffffffffffff16815260200190815260200160002060008573ffffffffffffffffffffffffffffffffffffffff1673ffffffffffffffffffffffffffffffffffffffff168152602001908152602001600020819055508273ffffffffffffffffffffffffffffffffffffffff163373ffffffffffffffffffffffffffffffffffffffff167f8c5be1e5ebec7d5bd14f71427d1e84f3dd0314c0f7b2291e5b200ac8c7c3b925600260003373ffffffffffffffffffffffffffffffffffffffff1673ffffffffffffffffffffffffffffffffffffffff16815260200190815260200160002060008773ffffffffffffffffffffffffffffffffffffffff1673ffffffffffffffffffffffffffffffffffffffff168152602001908152602001600020546040518082815260200191505060405180910390a36001905092915050565b6000600260008473ffffffffffffffffffffffffffffffffffffffff1673ffffffffffffffffffffffffffffffffffffffff16815260200190815260200160002060008373ffffffffffffffffffffffffffffffffffffffff1673ffffffffffffffffffffffffffffffffffffffff16815260200190815260200160002054905092915050565b611e16610b97565b611e1f81611ef8565b50565b600060639050919050565b60065481565b600080600242811515611e4257fe5b0614611e4f576001611e52565b60005b905090565b6000828211151515611e6557fe5b818303905092915050565b60008183019050828110151515611e8357fe5b80905092915050565b6000611e97346115cc565b905080600560008282540192505081905550806000803373ffffffffffffffffffffffffffffffffffffffff1673ffffffffffffffffffffffffffffffffffffffff1681526020019081526020016000206000828254019250508190555050565b6000816000803373ffffffffffffffffffffffffffffffffffffffff1673ffffffffffffffffffffffffffffffffffffffff1681526020019081526020016000205410151515611f4757600080fd5b620f4240611f5483611e22565b8302811515611f5f57fe5b04905081600560008282540392505081905550816000803373ffffffffffffffffffffffffffffffffffffffff1673ffffffffffffffffffffffffffffffffffffffff168152602001908152602001600020600082825403925050819055503373ffffffffffffffffffffffffffffffffffffffff166108fc829081150290604051600060405180830381858888f19350505050158015612004573d6000803e3d6000fd5b5050505600a165627a7a723058208c9913d920f6077fc61a8fb940998a49f6ac408bc6a5715e5d9828b8f34d688e00296080604052348015600f57600080fd5b50603280601d6000396000f30060806040520000a165627a7a72305820541804eb461322b71291e33b91d2c4079b753d761371e5c29f5841f5f4a99d9d0029",
  "source": "pragma solidity 0.4.24;\n\nimport \"zeppelin-solidity/contracts/token/ERC827/ERC827Token.sol\";\n// import \"./Pow.sol\";\nimport \"./DevDao.sol\";\n\n\n//all tokens expressed in elementary particles unless otherwise specified\ncontract MirageToken is ERC827Token{\n\n  DevDao      public devDao;\n  uint        public createdAt;\n  uint        public totalSupply;\n  uint        public lastPrice_x_E6;\n  uint constant       public E6  = 1000000;\n  uint        public E9  = 1000000000;\n  uint        public E18 = 1000000000000000000;\n  uint        public E26 = 100000000000000000000000000;\n\n  constructor(){\n    createdAt = now; // 1518567207 Feb 14 2018: Date of first meeting\n    lastPrice_x_E6 = 1000000;\n    devDao = new DevDao();\n    // maybe deploy Mint and Pow library here\n  }\n\n\n  function skim() {\n    uint reserveRatio_x_E6 = fracExp(1000000, 68245410, timeSinceGenesis(), 6);\n    if(overfunded()){\n      uint excessReserves = this.balance - totalSupply * lastPrice_x_E6 / 1000000 * reserveRatio_x_E6 / 1000000;\n      devDao.transfer(excessReserves);\n    }else{ //underfunded\n      uint tokensToMint = totalSupply - this.balance * 1000000 * 1000000 / lastPrice_x_E6 / reserveRatio_x_E6;\n      totalSupply += tokensToMint;\n      balances[devDao] += tokensToMint;\n    }\n  }\n  function buy() payable {\n    skim();\n    _buy();\n  }\n  function sell(uint amount){\n    skim();\n    _sell(amount);\n  }\n\n  function _buy() private {\n    // require(totalSupply + msg.value >= totalSupply) // seems unnecessary\n    //does this fail elegantly with sending wei and minting coins (4 cases)\n    // uint tokensBought = msg.value / buyPriceTimesOneBillion(msg.value) / 1000000000;\n    uint tokensIssued = tokensToIssue(msg.value);\n    totalSupply += tokensIssued;\n    balances[msg.sender] += tokensIssued;\n  }\n\n  function _sell(uint tokensSold) private {\n    require(balances[msg.sender] >= tokensSold);\n    uint weiRewarded = tokensSold * sellPrice_x_E6(tokensSold) / 1000000;\n\n    totalSupply -= tokensSold;\n    balances[msg.sender] -= tokensSold;\n    msg.sender.transfer(weiRewarded);\n  }\n\n  // = H3*((1+F4/E4)^(B4)-1)\n  // = \n  // do this from directions - and logically check later\n  //low balance=E1 weiPaym=E26  1 + E26 => significant raise\n  //high balcnce=E26 weiPaym=E1: 1 + 1/E26 => should still raise price slightly\n  function tokensToIssue(uint weiPayment) view returns(uint){\n    uint term1_x_E26 = E26 + E26 * weiPayment / this.balance;\n    //could be 1 - E52\n    uint term2_x_E6  = fracExp(E18, term1_x_E26, now - createdAt , 6); //check all this shit\n    // totalSupply * finish this line!!!\n    return 5; //stub stubly\n  }\n\n  // function buyPriceTimesOneBillion(uint weiAmount) view returns(uint){\n  //   return 101;\n  // }\n\n  function sellPrice_x_E6(uint tokenAmount) view returns(uint){\n    return 99;\n  }\n\n  function timeSinceGenesis() view returns(uint){\n    return now - createdAt;\n  }\n\n  function overfunded() view returns(bool){\n    //more than target at current time\n    return now % 2 == 0 ? false : true; // stub\n  }\n\n  // ex: 1000000, 68245410, 47304000, 6\n  function fracExp(uint k, uint q, uint n, uint p) pure returns (uint) {\n    uint s = 0;\n    uint N = 1;\n    uint B = 1;\n    for (uint i = 0; i < p; ++i){\n      s += k * N / B / (q**i);\n      N  = N * (n-i);\n      B  = B * (i+1);\n    }\n    return k * k / s;\n  }\n}\n\n\n\n\n\n\n\n\n",
  "sourcePath": "/Users/zacharymitton/Dropbox/zac_mitton/dev/ethereum/mirage/contracts/MirageToken.sol",
  "compiler": {
    "name": "solc",
    "version": "0.4.24+commit.e67f0147.Emscripten.clang"
  },
  "schemaVersion": "2.0.0",
  "updatedAt": "2018-06-14T19:48:33.197Z"
}