{
  "contractName": "Pow",
  "abi": [
    {
      "constant": false,
      "inputs": [
        {
          "name": "baseE10",
          "type": "uint256"
        },
        {
          "name": "exp",
          "type": "uint256"
        }
      ],
      "name": "exp10",
      "outputs": [
        {
          "name": "",
          "type": "uint256"
        }
      ],
      "payable": false,
      "stateMutability": "nonpayable",
      "type": "function"
    },
    {
      "constant": false,
      "inputs": [
        {
          "name": "base",
          "type": "uint256"
        },
        {
          "name": "exp",
          "type": "uint256"
        }
      ],
      "name": "expCeil",
      "outputs": [
        {
          "name": "",
          "type": "uint256"
        }
      ],
      "payable": false,
      "stateMutability": "nonpayable",
      "type": "function"
    },
    {
      "constant": false,
      "inputs": [
        {
          "name": "base",
          "type": "uint256"
        },
        {
          "name": "exp",
          "type": "uint256"
        }
      ],
      "name": "expFloor",
      "outputs": [
        {
          "name": "",
          "type": "uint256"
        }
      ],
      "payable": false,
      "stateMutability": "nonpayable",
      "type": "function"
    }
  ],
  "bytecode": "0x6101ad610030600b82828239805160001a6073146000811461002057610022565bfe5b5030600052607381538281f300730000000000000000000000000000000000000000301460806040526004361061006e576000357c0100000000000000000000000000000000000000000000000000000000900463ffffffff16806315709ded146100735780637f9f531b146100be5780638154889b14610109575b600080fd5b81801561007f57600080fd5b506100a86004803603810190808035906020019092919080359060200190929190505050610154565b6040518082815260200191505060405180910390f35b8180156100ca57600080fd5b506100f36004803603810190808035906020019092919080359060200190929190505050610163565b6040518082815260200191505060405180910390f35b81801561011557600080fd5b5061013e6004803603810190808035906020019092919080359060200190929190505050610172565b6040518082815260200191505060405180910390f35b6000633c336080905092915050565b6000633a699d00905092915050565b6000633b0233809050929150505600a165627a7a7230582076c9084efa371e5417424c883b872c3368ea0af4e5e81223efe9f8d732a54d870029",
  "source": "pragma solidity 0.4.24;\n\nlibrary Pow{\n  function exp10(uint baseE10,uint exp) returns(uint){\n    return 1010000000;\n  }\n  function expCeil(uint base,uint exp) returns(uint){\n    return 990000000;\n  }\n  function expFloor(uint base,uint exp) returns(uint){\n    return 980000000;\n  }\n}\n",
  "sourcePath": "/Users/zacharymitton/Dropbox/zac_mitton/dev/ethereum/mirage/contracts/Pow.sol",
  "compiler": {
    "name": "solc",
    "version": "0.4.24+commit.e67f0147.Emscripten.clang"
  },
  "schemaVersion": "2.0.0",
  "updatedAt": "2018-05-27T14:29:50.572Z"
}