{
  "contractName": "Pow",
  "abi": [
    {
      "constant": false,
      "inputs": [
        {
          "name": "baseE10",
          "type": "uint256"
        },
        {
          "name": "exp",
          "type": "uint256"
        }
      ],
      "name": "exp10",
      "outputs": [
        {
          "name": "",
          "type": "uint256"
        }
      ],
      "payable": false,
      "stateMutability": "nonpayable",
      "type": "function"
    },
    {
      "constant": false,
      "inputs": [
        {
          "name": "base",
          "type": "uint256"
        },
        {
          "name": "exp",
          "type": "uint256"
        }
      ],
      "name": "expCeil",
      "outputs": [
        {
          "name": "",
          "type": "uint256"
        }
      ],
      "payable": false,
      "stateMutability": "nonpayable",
      "type": "function"
    },
    {
      "constant": false,
      "inputs": [
        {
          "name": "base",
          "type": "uint256"
        },
        {
          "name": "exp",
          "type": "uint256"
        }
      ],
      "name": "expFloor",
      "outputs": [
        {
          "name": "",
          "type": "uint256"
        }
      ],
      "payable": false,
      "stateMutability": "nonpayable",
      "type": "function"
    },
    {
      "constant": false,
      "inputs": [
        {
          "name": "k",
          "type": "uint256"
        },
        {
          "name": "q",
          "type": "uint256"
        },
        {
          "name": "n",
          "type": "uint256"
        },
        {
          "name": "p",
          "type": "uint256"
        }
      ],
      "name": "fracExp",
      "outputs": [
        {
          "name": "",
          "type": "uint256"
        }
      ],
      "payable": false,
      "stateMutability": "nonpayable",
      "type": "function"
    }
  ],
  "bytecode": "0x608060405234801561001057600080fd5b50610268806100206000396000f300608060405260043610610062576000357c0100000000000000000000000000000000000000000000000000000000900463ffffffff16806315709ded146100675780637f9f531b146100b25780638154889b146100fd578063d6db85af14610148575b600080fd5b34801561007357600080fd5b5061009c60048036038101908080359060200190929190803590602001909291905050506101a7565b6040518082815260200191505060405180910390f35b3480156100be57600080fd5b506100e760048036038101908080359060200190929190803590602001909291905050506101b6565b6040518082815260200191505060405180910390f35b34801561010957600080fd5b5061013260048036038101908080359060200190929190803590602001909291905050506101c5565b6040518082815260200191505060405180910390f35b34801561015457600080fd5b50610191600480360381019080803590602001909291908035906020019092919080359060200190929190803590602001909291905050506101d4565b6040518082815260200191505060405180910390f35b6000633c336080905092915050565b6000633a699d00905092915050565b6000633b023380905092915050565b60008060008060008093506001925060019150600090505b8581101561022d5780880a82848b0281151561020457fe5b0481151561020e57fe5b04840193508087038302925060018101820291508060010190506101ec565b839450505050509493505050505600a165627a7a723058202512cb410bec45d5627c282e24505ec3fae003a6bbe27eff8e78856b79dae21d0029",
  "source": "pragma solidity 0.4.24;\n\ncontract Pow{\n  function exp10(uint baseE10,uint exp) returns(uint){\n    return 1010000000;\n  }\n  function expCeil(uint base,uint exp) returns(uint){\n    return 990000000;\n  }\n  function expFloor(uint base,uint exp) returns(uint){\n    return 980000000;\n  }\n\n\n   // via: http://ethereum.stackexchange.com/questions/10425/is-there-any-efficient-way-to-compute-the-exponentiation-of-a-fraction-and-an-in/10432#10432\n  // Computes `k * (1+1/q) ^ N`, with precision `p`. The higher\n  // the precision, the higher the gas cost. It should be\n  // something around the log of `n`. When `p == n`, the\n  // precision is absolute (sans possible integer overflows).\n  // Much smaller values are sufficient to get a great approximation.\n  //           1000000, 68245410, 47304000, 8 <- should return 2000000\n  function fracExp(uint k, uint q, uint n, uint p) returns (uint) {\n    uint s = 0;\n    uint N = 1;\n    uint B = 1;\n    for (uint i = 0; i < p; ++i){\n      s += k * N / B / (q**i);\n      N  = N * (n-i);\n      B  = B * (i+1);\n    }\n    return s;\n  }\n}\n",
  "sourcePath": "/Users/zacharymitton/Dropbox/zac_mitton/dev/ethereum/mirage/contracts/Pow.sol",
  "compiler": {
    "name": "solc",
    "version": "0.4.24+commit.e67f0147.Emscripten.clang"
  },
  "schemaVersion": "2.0.0",
  "updatedAt": "2018-05-28T20:23:26.734Z"
}