{
  "contractName": "shieldLogic",
  "abi": [
    {
      "payable": true,
      "stateMutability": "payable",
      "type": "fallback"
    },
    {
      "constant": false,
      "inputs": [
        {
          "name": "data",
          "type": "bytes"
        }
      ],
      "name": "shield",
      "outputs": [],
      "payable": true,
      "stateMutability": "payable",
      "type": "function"
    },
    {
      "constant": false,
      "inputs": [
        {
          "name": "data",
          "type": "bytes"
        }
      ],
      "name": "unshield",
      "outputs": [],
      "payable": true,
      "stateMutability": "payable",
      "type": "function"
    }
  ],
  "bytecode": "0x608060405234801561001057600080fd5b5061027a806100206000396000f30060806040526004361061004c576000357c0100000000000000000000000000000000000000000000000000000000900463ffffffff1680636b583d18146100ba578063cd51c6e214610116575b6040517f08c379a00000000000000000000000000000000000000000000000000000000081526004018080602001828103825260118152602001807f6e6f742079657420617661696c61626c6500000000000000000000000000000081525060200191505060405180910390fd5b610114600480360381019080803590602001908201803590602001908080601f0160208091040260200160405190810160405280939291908181526020018383808284378201915050505050509192919290505050610172565b005b610170600480360381019080803590602001908201803590602001908080601f01602080910402602001604051908101604052809392919081815260200183838082843782019150505050505091929192905050506101e0565b005b6040517f08c379a00000000000000000000000000000000000000000000000000000000081526004018080602001828103825260118152602001807f6e6f742079657420617661696c61626c6500000000000000000000000000000081525060200191505060405180910390fd5b6040517f08c379a00000000000000000000000000000000000000000000000000000000081526004018080602001828103825260118152602001807f6e6f742079657420617661696c61626c6500000000000000000000000000000081525060200191505060405180910390fd00a165627a7a723058206a032be97c2ad482fdefc598cbdcdce8970f1c604a75edde7d2ee530a75a791b0029",
  "source": "pragma solidity ^0.4.24;\n\ncontract shieldLogic {\n  // address mirage;\n  // address collective;\n  // contructor(address _mirageToken, address _collective){\n  //   mirage = _mirage;\n  //   collective = _collective;\n  // }\n  // modifier onlyCollective(){ if (msg.sender == collective) _; }\n\n  function () payable{\n  //   //really no point of using this with a forward function to \n  //   //shield and unsheild because we can already upgrade this whole \n  //   //contract anyway. if anything the other token could use a forward \n  //   //because it could extend its interface\n    revert(\"not yet available\");\n  }\n\n  function shield(bytes data) payable{\n    revert(\"not yet available\");\n  }\n\n  function unshield(bytes data) payable{\n    revert(\"not yet available\");\n  }\n\n  // function shield(bytes data) payable{\n  //   mirage.transferFrom(from, address(this), value);\n  // }\n  // function unshield(bytes data) payable{\n  //   if(proofIsCorrect){\n  //     mirage.transfer(to, value)\n  //   }\n  // }\n\n  // function upgrade() onlyCollective{   }\n\n  // this version doesnt need upgrade path for transfering deposits,\n  // because it doesnt take any\n}\n",
  "sourcePath": "/Users/zacharymitton/Dropbox/zac_mitton/dev/ethereum/mirage/contracts/shieldLogic.sol",
  "compiler": {
    "name": "solc",
    "version": "0.4.24+commit.e67f0147.Emscripten.clang"
  },
  "schemaVersion": "2.0.0",
  "updatedAt": "2018-08-22T13:17:23.809Z"
}